:020000040800F2
:1000000000000220010A0008FD090008CD62000876
:10001000FD090008FD090008FD09000800000000B6
:10002000000000000000000000000000FD090008C2
:10003000FD09000800000000FD09000851620008E9
:10004000FD090008FD090008FD090008FD09000878
:10005000FD090008FD090008FD090008FD09000868
:10006000FD090008FD090008FD090008595E0008A7
:10007000655E0008FD090008715E00087D5E0008ED
:10008000D10E010835530008FD090008FD090008DC
:10009000FD090008FD090008FD090008FD09000828
:1000A000FD090008FD090008FD090008FD09000818
:1000B000A5020108B1020108BD0201086953000848
:1000C000FD09000875530008FD09000815FB00082C
:1000D00021FB0008050D0108350D0108690D010817
:1000E000FD090008FD09000800000000FD090008E6
:1000F000FD090008FD090008FD090008FD090008C8
:10010000FD090008FD090008C90201082DFB0008CF
:100110009D0D0108D10D0108FD090008FD09000829
:10012000FD090008FD09000851FB000885FB0008D7
:10013000050F0108FD090008FD090008FD09000878
:1001400000000000000000000000000000000000AF
:10015000FD090008FD090008FD090008050E010859
:1001600081530008FD0900086162000885620008EB
:10017000FD090008A9620008FD090008FD09000842
:10018000FD090008FD090008390E0108690E010883
:1001900039FB000845FB0008FD090008FD090008BF
:1001A000FD090008FD090008FD090008FD09000817
:1001B000795B0008FD090008FD090008FD09000839
:1001C000FD090008FD090008954E0008A14E000831
:1001D000FD090008AD4E0008FD090008FD090008F2
:1001E000FD090008FD090008FD090008FD090008D7
:1001F000FD090008FD090008FD090008FD090008C7
:10020000FD090008FD090008FD090008FD090008B6
:10021000FD090008FD090008FD090008FD090008A6
:10022000FD090008FD090008FD09000800000000A4
:10023000FD090008FD09000800000000FD09000894
:10024000FD090008FD090008FD090008FD09000876
:10025000FD090008FD090008FD090008FD09000866
:10026000FD090008FD090008FD090008FD09000856
:10027000FD090008FD0900089D0E010800000000AE
:10028000FD090008FD090008FD0900080000000044
:0802900000000000FD09000858
:1002A00010B5054C237833B9044B13B10448AFF3B0
:1002B00000800123237010BD2806002400000000E8
:1002C000609B010808B5034B1BB103490348AFF31A
:1002D000008008BD000000002C060024609B01087F
:1002E00001F0FF01102A2BDB10F0070F08D010F8E7
:1002F000013B013A8B422DD010F0070F42B3F6D1EB
:10030000F0B441EA012141EA014122F007047FF003
:1003100000070023F0E80256083C85EA010586EA5A
:10032000010685FA47F5A3FA87F586FA47F6A5FA96
:1003300087F68EB9EED1F0BC01F0FF0102F00702A2
:1003400032B110F8013B013A83EA010313B1F8D14D
:100350000020704701387047002D06BF354603382E
:10036000073815F0010F07D1013015F4807F02BF67
:10037000013015F4C03F0130F0BC0138704700BFB8
:1003800081F0004102E000BF83F0004330B54FEA46
:1003900041044FEA430594EA050F08BF90EA020FB3
:1003A0001FBF54EA000C55EA020C7FEA645C7FEA46
:1003B000655C00F0E2804FEA5454D4EB5555B8BF69
:1003C0006D420CDD2C4480EA020281EA030382EADA
:1003D000000083EA010180EA020281EA0303362D6C
:1003E00088BF30BD11F0004F4FEA01314FF4801C3F
:1003F0004CEA113102D0404261EB410113F0004F51
:100400004FEA03334CEA133302D0524263EB430307
:1004100094EA050F00F0A780A4F10104D5F1200EA5
:100420000DDB02FA0EFC22FA05F2801841F1000100
:1004300003FA0EF2801843FA05F359410EE0A5F1D4
:1004400020050EF1200E012A03FA0EFC28BF4CF005
:10045000020C43FA05F3C01851EBE37101F00045BB
:1004600007D54FF0000EDCF1000C7EEB00006EEBC8
:100470000101B1F5801F1BD3B1F5001F0CD3490852
:100480005FEA30004FEA3C0C04F101044FEA4452A9
:1004900012F5800F80F09A80BCF1004F08BF5FEA30
:1004A000500C50F1000041EB045141EA050130BD10
:1004B0005FEA4C0C404141EB0101013C28BFB1F522
:1004C000801FE9D291F0000F04BF01460020B1FA6D
:1004D00081F308BF2033A3F10B03B3F120020CDA40
:1004E0000C3208DD02F1140CC2F10C0201FA0CF01E
:1004F00021FA02F10CE002F11402D8BFC2F1200C83
:1005000001FA02F120FA0CFCDCBF41EA0C01904038
:10051000E41AA2BF01EB0451294330BD6FEA040481
:100520001F3C1CDA0C340EDC04F11404C4F120026C
:1005300020FA04F001FA02F340EA030021FA04F37E
:1005400045EA030130BDC4F10C04C4F1200220FAD5
:1005500002F001FA04F340EA0300294630BD21FA13
:1005600004F0294630BD94F0000F83F4801306BFD9
:1005700081F480110134013D4EE77FEA645C18BFCD
:100580007FEA655C29D094EA050F08BF90EA020F64
:1005900005D054EA000C04BF1946104630BD91EA5C
:1005A000030F1EBF0021002030BD5FEA545C05D15F
:1005B0004000494128BF41F0004130BD14F580049E
:1005C0003CBF01F5801130BD01F0004545F0FE4112
:1005D00041F470014FF0000030BD7FEA645C1ABF47
:1005E000194610467FEA655C1CBF0B46024650EA7E
:1005F000013406BF52EA033591EA030F41F40021AA
:1006000030BD00BF90F0000F04BF0021704730B52F
:100610004FF4806404F132044FF000054FF0000104
:1006200050E700BF90F0000F04BF0021704730B5C5
:100630004FF4806404F1320410F0004548BF40429A
:100640004FF000013EE700BF42004FEAE2014FEAEF
:1006500031014FEA02701FBF12F07F4393F07F4FCA
:1006600081F06051704732F07F4208BF704793F0CD
:100670007F4F04BF41F40021704730B54FF46074E0
:1006800001F0004521F000411CE700BF50EA0102E3
:1006900008BF704730B54FF000050AE050EA01028C
:1006A00008BF704730B511F0004502D5404261EBFC
:1006B00041014FF4806404F132045FEA915C3FF43D
:1006C000D8AE4FF003025FEADC0C18BF03325FEADA
:1006D000DC0C18BF033202EBDC02C2F1200300FA8B
:1006E00003FC20FA02F001FA03FE40EA0E0021FAB0
:1006F00002F11444BDE600BF53B94AB9002908BF4E
:1007000000281CBF4FF0FF314FF0FF3000F074B9EC
:10071000ADF1080C6DE904CE00F006F8DDF804E058
:10072000DDE9022304B070472DE9F047089D044637
:100730008E46002B4DD18A42944669D9B2FA82F294
:1007400052B101FA02F3C2F1200120FA01F10CFAD0
:1007500002FC41EA030E94404FEA1C48210CBEFB08
:10076000F8F61FFA8CF708FB16E341EA034306FB91
:1007700007F199420AD91CEB030306F1FF3080F020
:100780001F81994240F21C81023E63445B1AA4B26D
:10079000B3FBF8F008FB103344EA034400FB07F70F
:1007A000A7420AD91CEB040400F1FF3380F00A8150
:1007B000A74240F207816444023840EA0640E41B45
:1007C00000261DB1D4400023C5E900433146BDE8F1
:1007D000F0878B4209D9002D00F0EF800026C5E993
:1007E000000130463146BDE8F087B3FA83F6002EAB
:1007F0004AD18B4202D3824200F2F980841A61EB23
:10080000030301209E46002DE0D0C5E9004EDDE740
:1008100002B9FFDEB2FA82F2002A40F09280A1EB28
:100820000C014FEA1C471FFA8CFE0126200CB1FB7D
:10083000F7F307FB131140EA01410EFB03F0884276
:1008400008D91CEB010103F1FF3802D2884200F203
:10085000CB804346091AA4B2B1FBF7F007FB101195
:1008600044EA01440EFB00FEA64508D91CEB040433
:1008700000F1FF3102D2A64500F2BB800846A4EB8E
:100880000E0440EA03409CE7C6F12007B34022FA79
:1008900007FC4CEA030C20FA07F401FA06F31C43A8
:1008A000F9404FEA1C4900FA06F3B1FBF9F8200CB5
:1008B0001FFA8CFE09FB181140EA014108FB0EF0FB
:1008C000884202FA06F20BD91CEB010108F1FF3A4B
:1008D00080F08880884240F28580A8F10208614457
:1008E000091AA4B2B1FBF9F009FB101144EA014165
:1008F00000FB0EFE8E4508D91CEB010100F1FF3410
:100900006CD28E456AD90238614440EA0840A0FBA7
:100910000294A1EB0E01A142C846A64656D353D07D
:100920005DB1B3EB080261EB0E0101FA07F722FAA1
:1009300006F3F1401F43C5E9007100263146BDE8CA
:10094000F087C2F12003D8400CFA02FC21FA03F32D
:10095000914001434FEA1C471FFA8CFEB3FBF7F0AE
:1009600007FB10360B0C43EA064300FB0EF69E42D3
:1009700004FA02F408D91CEB030300F1FF382FD26C
:100980009E422DD9023863449B1B89B2B3FBF7F614
:1009900007FB163341EA034106FB0EF38B4208D9ED
:1009A0001CEB010106F1FF3816D28B4214D9023E2E
:1009B0006144C91A46EA004638E72E46284605E74C
:1009C0000646E3E61846F8E64B45A9D2B9EB02081D
:1009D00064EB0C0E0138A3E74646EAE7204694E7AD
:1009E0004046D1E7D0467BE7023B614432E73046E0
:1009F00009E76444023842E7704700BFFEE700BFE2
:100A00000B480C4A904203D0121A0B4915F034FCE3
:100A10000A480B4A904203D0121A002115F03AFC02
:100A200005F07EFE15F0FCFB02F034F9FEE700BF96
:100A30000000002424060024949B010828060024BA
:100A4000B4F50424704700BF704700BF704700BF73
:100A5000704700BF704700BF704700BF704700BFBE
:100A6000704700BF704700BF704700BF704700BFAE
:100A70002DE9F04F2DED088B85B01F4814460392E9
:100A8000029104F047F91D4804F044F91C4804F0B1
:100A900041F91C4804F03EF91B4804F03BF91B489F
:100AA00004F038F91A4A1B4BF5EE006A12881B88CD
:100AB00007EE102A07EE903A174BB8EE477AF8EE99
:100AC000677A27EE267A67EEA67A83ED007A134BD3
:100AD000C3ED007A002C01F0B987114E002306F512
:100AE000104906F5704806F5A83706F5783506F57D
:100AF0008824009301F04DBED0930424E093042495
:100B0000F0930424009404241094042420940424D6
:100B100004960424069604246C9404248C940424DF
:100B20004406002490C2753D6666663F5FED037A19
:100B30001FED036A66EEA76AC6EE857A77EE867ABF
:100B4000F24B67EE876AC6ED057AB0EEC76A03F529
:100B50008050D3F85C18C6ED066A00F6F87300F60C
:100B6000E47200F6F47A01F2DB5ED2ED006AD3EDB6
:100B7000007AE74A67EEE67ADAED006A0191C3EDA2
:100B8000006A00F57E6340F2DC50E04993ED005AC4
:100B9000A2FB0EC3AAF1040C5B09E5EE267ADCED9C
:100BA000006A00FB13E3AAF10C0EC1F85C38D1F81F
:100BB00060189EED005A0B44AAF6F471E5EE667AD1
:100BC000A1F5F66B03F1010EA1F58051DBED006A92
:100BD00077EE266A76EEA77ACAED007AA2FB03BA10
:100BE000A2FB0EB201F65C0B4FEA5A1A520900FB47
:100BF0001A3A0B4600FB12E0019903F5805203F606
:100C000058030BEB810102F6EC7293ED005A0BEBEB
:100C10008A0A13680BEB8000C2ED006ACCF8003042
:100C2000ABF10803C1ED027ADAED02BAD0ED027A37
:100C300077EEEB7AE7EE85BA93ED005A66EE057A29
:100C4000B0EE676A77EE2B6AF0EEE66AA5EE266AEA
:100C5000B5EE406AF1EE10FA01F0F4869FEDAD5A60
:100C6000DFEDAD6A67EE857A87EE865A35EE265A55
:100C7000AA4877EE6B6A25EE2B4AD0F8042100F5DE
:100C8000805100F5C553D0ED3F4A02F2DB5A00EB2C
:100C9000820C01F68C0100F58052D3ED007A183BEE
:100CA00002F69C0291ED007A994964EEA55A67EE2E
:100CB000C77A92ED007A90ED3E6A83ED067A93ED65
:100CC000003AA1FB0AE340F2DC5ED0ED403A5B095A
:100CD000E3EE077A30EE066A0EFB13A3A2F1040AD4
:100CE000C0F80431D0F808019AED007A0344A2F16B
:100CF0000C0090ED003A581CE3EE477A76EE277A26
:100D0000C2ED007AA1FB03B2A1FB00B1520949096F
:100D10000EFB1233814A0EFB110002EB830302EB40
:100D2000800002F5805202F69401A2F5C04202F65C
:100D30004C0282ED005A0A6881ED006AB0EE656AE5
:100D4000CAF80020CCED437AD3ED437A90ED437A94
:100D50006E4A37EE677A02F50563E7EE237A83ED94
:100D6000004A30EE270AB0EEC00AA4EE806AB5EE63
:100D7000406AF1EE10FA01F061869FED667A9FED10
:100D8000665A25EE877AC7EE065A75EE855A634B8A
:100D900065EEA73A99ED367A40F2DC5A03F58051B8
:100DA000C3ED3D5AC3ED3E3AD1F840090A46D1F8A9
:100DB0003C3901F5136199ED316A03F2DB5CD1ED49
:100DC000005A534927EE467A99ED355A75EEE75A9F
:100DD000A1FB0CE199ED303AD9ED344AB0EEE76A67
:100DE0004909A3EE057A99ED324A0AFB11C189ED52
:100DF000365AB1EE675A0844C2F83C1902F63C1163
:100E0000434A00F1010EA4EE647A01EB830CA2FBCD
:100E100000B3A2FB0EB25B0952090AFB13030AFBE3
:100E200012EE35EE877AD9F8CC2001EB830301EB83
:100E30008E01C9ED335AC9F8D020394A89ED357A87
:100E40008CED027AD3ED02BA02F6381391ED027AF4
:100E5000D3ED005A02F6341337EE6B7AE7EE25BA7B
:100E6000D3ED005A26EE257AB0EE476A7BEEE77A9C
:100E7000F0EEE77AA5EEA76AB5EE406AF1EE10FA59
:100E800001F0D885DFED237ADFED235A27EE277AAC
:100E9000C7EE067A77EEA57A224B27EEAB7A204A88
:100EA00075EE6BBA997E02F62C131F48A1F1FF0173
:100EB0007BEEA6BAC3ED007A02F51363B1FA81F1B5
:100EC00083ED007A490913F023F8184860EE2AAA46
:100ED000D0F8F02100F58051D0ED7A6A02F2DB5AA9
:100EE00001F68C1300EB820C01F6781100F58052AC
:100EF000D3ED007A91ED005A183B02F688120449AE
:100F000067EEC57A90ED797A12E000BF44160024AE
:100F1000F119760590C2753D6666663F4466002409
:100F200044760024D0930424DC94042444C6002492
:100F300092ED005A6AEE8BAAD0ED7B4A83ED065AF9
:100F400093ED004AA1FB0AE340F2DC5E3AEE877AB9
:100F50005B09E4EE057AF0EEEA5A0EFB13A3A2F168
:100F6000040AC0F8F03125EEA66AD0F8F4019AED33
:100F7000005A0344A2F10C0090ED004A581CE4EE24
:100F8000457AB0EE465A77EE277AC2ED007AA1FB99
:100F900003B2A1FB00B1520949090EFB1233F24A18
:100FA0000EFB110002F5CC5102EB830302EB800033
:100FB0000A6881ED007ACAF80020CCED7E7A93EDC4
:100FC0007E7AD0ED7E7A77EEC77AA7EEA47A7AEEB3
:100FD000877AF0EEE77AA6EEA75AB5EE405AF1EE20
:100FE00010FA01F02385DFEDE16ADFEDE17A26EE0C
:100FF000266AC6EE056A76EEA76ADB4B66EE873A8E
:10100000D8ED717A40F2DC5A03F58051C3ED786A6D
:10101000C3ED793AD1F82C0A0A46D1F8283A01F6FC
:101020001C2198ED6C6A03F2DB5CD1ED006AD149BA
:1010300067EEC67A98ED705A77EE266AA1FB0CE14E
:1010400098ED6B3AD8ED6F4AB0EEC76A4909E3EE06
:10105000057A98ED6D4A0AFB11C188ED715A084472
:10106000C2F8281A02F62821C24A00F1010EE4EE65
:10107000647A01EB830CA2FB00B3A2FB0EB25B0906
:1010800052090AFB13030AFB12EE76EEA77AD8F890
:10109000B82101EB830301EB8E01C8ED6E6AC8F83D
:1010A000BC21B54AC8ED707ACCED027AD3ED026A64
:1010B00002F62423D1ED027A93ED005A02F5226361
:1010C00077EEE67AD3ED004AE7EE856A66EE247A9B
:1010D000B0EE676A37EE265AB0EEC55AA4EE856ABE
:1010E000B5EE406AF1EE10FA01F09C849FED9F5A34
:1010F000DFED9F4A67EE857A87EE865A35EE245AF1
:101100009E4825EE264A77EE666AD0F8D02200F592
:101110008051D0EDB24A02F2DB5A01F66C2300EBAB
:10112000820C01F6582100F58052D3ED007A91ED42
:10113000007A183B02F668228E4967EEC77A90ED76
:10114000B16A92ED007A64EEA55AD0EDB33A3AEE68
:10115000866A83ED067A93ED003AA1FB0AE340F23A
:10116000DC5E5B09E3EE077A0EFB13A3A2F1040A2F
:10117000C0F8D032D0F8D4029AED007A0344A2F13C
:101180000C0090ED003A581CE3EE477A76EE277A91
:10119000C2ED007AA1FB03B2A1FB00B152094909DB
:1011A0000EFB1233754A0EFB110002EB830302F5AE
:1011B000D35102EB8000A2F5A04202F6182282ED84
:1011C000005A0A6881ED006ACAF80020CCEDB67AB0
:1011D000D3EDB67A90EDB67A674A37EE677A02F6C3
:1011E0001C23E7EE237A83ED004AB0EE657A7AEEAF
:1011F000A7AAF0EEEAAAA4EEAA7AB5EE407AF1EE3A
:1012000010FA01F00B849FED596A9FED595A65EE73
:10121000865A85EE876A36EE056A584B66EE273A9F
:1012200097EDA97A40F2DC5A03F5805183EDB06A5C
:10123000C3EDB13AF1EE67AAD1F8083B0A46D1F8FE
:101240000C0B01F6FC2103F2DB5CD7EDA45A91ED07
:10125000006A484927EE657A97EDA85A36EE676A24
:10126000A1FB0CE197EDA33AD7EDA74AF0EEE75AC0
:101270004909A3EE057A97EDA54A0AFB11C187ED4E
:10128000A95A0844C2F8081B02F60831394A00F18D
:10129000010EA4EE647A01EB830CA2FB00B3A2FB67
:1012A0000EB25B0952090AFB13030AFB12EE36EE7B
:1012B000077AD7F8982201EB830301EB8E0187EDC3
:1012C000A66AC7F89C222E4A87EDA87A8CED027A8E
:1012D00093ED026A02F6043391ED027A93ED005A1F
:1012E00002F5306337EE467AA7EE056A93ED005AB1
:1012F00025EE857AF0EE475A76EE677AF0EEE77AD9
:10130000E5EE275AF5EE405AF1EE10FA01F082832D
:10131000DFED167A9FED165A27EE277AC7EE257A6B
:1013200077EE857A174B7AEEC6AA154A27EE866ABB
:1013300093F82A1002F6F8231348A1F1FF017AEE80
:10134000A6AAC3ED007A02F6FC23B1FA81F183ED7F
:10135000006A7AEEABAA490912F0DAFD0B4820EEDA
:101360000A0AD0F8BC2313E044C6002490C2753D9D
:101370006666663FF119760544D6002444260124AA
:1013800044360124D09304240C950424448601247B
:1013900000F58051D0EDED6A02F2DB5A01F65833C8
:1013A00000EB820C01F6443100F58052D3ED007A57
:1013B00091ED005A183B02F65432F34967EEC57AB4
:1013C00090EDEC7A92ED005A20EE0BBAD0EDEE4A99
:1013D00083ED065A93ED004AA1FB0AE340F2DC5E7E
:1013E0003BEE077A5B09E4EE057AF0EECB5A0EFB92
:1013F00013A3A2F1040AC0F8BC3325EEA66AD0F804
:10140000C0039AED005A0344A2F10C0090ED004A8B
:10141000581CE4EE457AB0EE465A77EE277AC2EDD4
:10142000007AA1FB03B2A1FB00B1520949090EFBEE
:101430001233D64A0EFB110002EB830302EB80004D
:1014400002F5805202F64C310A6881ED007ACAF842
:101450000020CCEDF17A93EDF17AD0EDF17A77EED0
:10146000C77AA7EEA47A7BEE077AF0EEE77AA6EECB
:10147000A75AB5EE405AF1EE10FA01F0C782DFED3F
:10148000C46ADFEDC47A26EE266AC6EE056A76EEF9
:10149000A76AC14B66EE873A40F2DC5AD3EDE47A94
:1014A000A3F5005093EDDF6AA3F5405293EDE35AA4
:1014B000014667EEC67A93EDDE3AD3EDE24AB0EE2E
:1014C000C76A93EDE04AE3EE057A83EDE45A0B46F2
:1014D00001F6E831C2EDEB6AD1ED006AD0F8F4BB59
:1014E00077EE266AAC49E4EE647A0BF2DB5CC2ED7F
:1014F000EC3AA54AD0F8F80B76EEA77AC1EDE37A7C
:10150000A2FB0CE149090AFB11C10844C3F8F41B12
:1015100003F6F43100F1010E01EB8B0CA2FB00B3DA
:10152000A2FB0EB25B0952090AFB13039A480AFB9D
:1015300012EED0F8842301EB830301EB8E01C0EDA2
:10154000E16AC0F88823A0F50052CCED027AD3ED11
:10155000026A02F53F63D1ED027A93ED005A02F67A
:10156000EC3377EEE67AD3ED004AE7EE856A66EE75
:10157000247AB0EE674A37EE265AB0EEC55AA4EE8A
:10158000854AB5EE404AF1EE10FA01F03B829FED3C
:10159000805A9FED806A67EE857A87EE845A35EE31
:1015A000066A7E4B66EE264A77EE666A03F5805041
:1015B000D3F89C1400F6244200F6384300F6344A6F
:1015C00001F2DB5ED3ED007A92ED007A6E4A67EEAF
:1015D000C77A9AED007A019183ED007A00F54263B3
:1015E00040F2DC506D4993ED005AA2FB0EC3AAF104
:1015F000040C5B09E5EE077A9CED007A00FB13E32F
:10160000AAF10C0EC1F89C34D1F8A0149EED005A3A
:101610000B44AAF63441E5EE477AA1F5376B03F1A6
:10162000010EA1F580519BED007A3BEE077A77EE33
:10163000277ACAED007AA2FB03BAA2FB0EB201F22E
:101640009C4B4FEA5A1A520900FB1A3A0B4600FB10
:1016500012E0019903F5805203F593630BEB8101CE
:1016600002F62C4293ED005A0BEB8A0A13680BEB3F
:10167000800082ED007ACCF80030ABF10803C1EDB8
:10168000027ADAED027A90ED027A454A37EE677A0D
:10169000E7EE057A93ED007A02F6E43367EE255A19
:1016A00083ED006A02F6E833B0EE655AC3ED004AF6
:1016B0003BEE27BAB0EECBBAA7EE0B5AB5EE405AC6
:1016C000F1EE10FA01F09A819FED316A9FED317AC7
:1016D00065EE865AC5EE854A74EE874A314BB0EE08
:1016E000E75A64EEA73A03F50050D3F8D41CF1EEA4
:1016F000675A00F58E6300F25C4200F26C4A01F218
:10170000DB5E93ED007A92ED006A1F4A27EE467A7F
:101710009AED006A019183ED006A00F58B6340F257
:10172000DC50204993ED004AA2FB0EC3AAF1040C41
:101730005B09A4EE067A9CED006A00FB13E3AAF1B4
:101740000C0EC1F8D43CD1F8D81C9EED004A0B44D5
:10175000AAF26C41A4EE467AA1F5005103F1010E04
:1017600001F6C84B9BED006A36EE676A36EE077AE3
:101770008AED007AA2FB03BAA2FB0EB201F6D44BAB
:101780004FEA5A1A52090FE0F119760544860124EE
:1017900090C2753D6666663F44B6012444E6012466
:1017A0004496012444F6012400FB1A3A0B4600FB40
:1017B00012E0019903F5005203F54D630BEB810133
:1017C00002F2644293ED004A0BEB8A0A13680BEBBA
:1017D000800082ED006ACCF80030ABF1080381EDA7
:1017E000027A9AED026A90ED027AF24A37EE467A70
:1017F000A7EE046A93ED004A02F28C4325EE047AC8
:10180000C3ED004A02F59263B0EE475AC3ED003AC9
:1018100076EE677AF0EEE77AA4EE275AB5EE405AF4
:10182000F1EE10FA01F0E680DFEDE37ADFEDE34A56
:1018300027EE277AC7EE057A77EEA47AE04B35EEED
:10184000C67AE04A27EE866A93F83A1002F6C44355
:1018500037EE267AA1F1FF01DB48C3ED007A02F6EC
:10186000C843B1FA81F177EE2AAA83ED006A4909EB
:1018700012F04EFBD54B60EE299A03F58050D3F859
:10188000881500F5516200F6245300F5526A01F202
:10189000DB5ED2ED007A69EEA89A93ED007ACC4A2D
:1018A00027EE677ADAED007A0191AAF5E951C3EDE6
:1018B000007A00F60C5340F2DC50F0EEE95AD3ED1A
:1018C000006AA2FB0EC3AAF1040C5B09A6EEA77A7C
:1018D000DCED007A00FB13E3AAF10C0EC1F88835A9
:1018E000D1F88C15DEED006A0B44AAF55261A6EE24
:1018F000E77AA1F6842B03F1010EAAF5E951DBED9D
:10190000007A79EEA77A37EE877A8AED007AA2FB21
:1019100003BAA2FB0EB201F5B16B4FEA5A1A520993
:1019200000FB1A3A0B4600FB12E0019903F58052C6
:1019300003F284530BEB810102F6185293ED006A17
:101940000BEB8A0A13680BEB8000C2ED007ACCF82F
:101950000030ABF1080381ED027ADAED026A90ED16
:10196000027A93ED005A37EE667AE7EE066A25EEC4
:10197000856AF0EE467A39EEA67AB0EE664AB0EEA7
:10198000C77AE5EE077AF5EE407AF1EE10FA01F04B
:101990002D80DFED896A9FED897A26EE266AC6EEF4
:1019A000273A73EE873A8B4BB0EEC46A23EE843A43
:1019B00003F50050D3F8C01D00F5AB6A00F25C538C
:1019C00000F5A96201F2DB5E9AED005A93ED007A10
:1019D000D2ED007A83ED005A00F244537C4A27EEA0
:1019E000677AD3ED007A40F2DC50A2FB0EC3AAF175
:1019F000040C0191A7EE857A5B097649DCED007A4B
:101A000000FB13E3AAF10C0EC1F8C03DD1F8C41DD0
:101A1000DEED006A0B44AAF5AB61A6EEE77AA1F50C
:101A2000005103F1010E01F6B45B9BED005A34EE58
:101A3000055A35EE077A8AED007AA2FB03BAA2FBBB
:101A40000EB201F55C6B4FEA5A1A520900FB1A3AC2
:101A50000B4600FB12E0019903F5005203F6BC535C
:101A60000BEB810102F5AA62D3ED004A0BEB8A0A67
:101A700013680BEB800082ED005ACCF80030ABF11C
:101A8000080381ED027ADAED026A90ED027AF0EE57
:101A9000667A4E4A37EE667AE7EE247AD3ED004A4C
:101AA00002F5AF6326EE247AC3ED003A02F27C53CE
:101AB000F0EE476A83ED003A34EE275AB0EEC55A8D
:101AC000E4EE856AF5EE406AF1EE10FA00F08A87DE
:101AD0009FED395A9FED396A27EE057A87EE265A2F
:101AE00035EE066A3C4B66EE274A74EE676A03F5EC
:101AF0008050D3F8681600F55F6200F6046300F5C5
:101B0000606A01F2DB5E93ED007AD2ED007A304A32
:101B100027EE677ADAED007A0191AAF5F051C3ED6C
:101B2000007A00F6EC5340F2DC5093ED005AA2FB31
:101B30000EC3AAF1040C5B09A5EE277ADCED007A4E
:101B400000FB13E3AAF10C0EC1F86836D1F86C164D
:101B50009EED005A0B44AAF56061A5EE677AA1F6E6
:101B6000A41B03F1010EAAF5F051DBED007A79EE2A
:101B7000A77A37EE877A8AED007AA2FB03BAA2FB36
:101B80000EB201F5CD6B4FEA5A1A520900FB1A3A10
:101B90000B4600FB12E0019903F5805203F26463E7
:101BA0000BEB810102F6F85293ED005A0BEB8A0A17
:101BB000136813E044E6012490C2753D6666663FF3
:101BC000D093042444F601243C9504244446022482
:101BD000F11976054456022444A602240BEB80003A
:101BE000C2ED007ACCF80030ABF1080381ED027A47
:101BF000DAED027A90ED027AF14A37EE677AE7EE93
:101C0000057A93ED007A02F55B6367EE255A83ED62
:101C1000006A02F6B453B0EE655AC3ED004A79EE9D
:101C2000A79AF0EEE99AA7EE295AB5EE405AF1EEDE
:101C300010FA00F0D3869FEDE36A9FEDE37A65EE3C
:101C4000865AC5EE854A74EE874AE04BB0EEE76AE5
:101C500064EEA73A03F50050D3F8A01EB1EE675A20
:101C600000F23C6300F5C56200F5C76A01F2DB5E75
:101C700093ED007AD2ED005AD54A27EE657ADAED77
:101C8000005A0191C3ED005A00F2246340F2DC5087
:101C9000CE4993ED004AA2FB0EC3AAF1040C5B09E6
:101CA000A4EE257ADCED005A00FB13E3AAF10C0E3A
:101CB000C1F8A03ED1F8A41E9EED004A0B44AAF53F
:101CC000C761A4EE657AA1F5005103F1010E01F69A
:101CD000946BDBED005A75EEE75A35EE877A8AEDA4
:101CE000007AA2FB03BAA2FB0EB201F56A6B4FEABF
:101CF0005A1A520900FB1A3A0B4600FB12E00199EE
:101D000003F5005203F69C630BEB810102F5C662FA
:101D100093ED004A0BEB8A0A13680BEB8000C2EDCF
:101D2000005ACCF80030ABF1080381ED027A9AED4D
:101D3000027AD0ED025AA74A75EEC75AA5EE847A08
:101D4000D3ED005A02F5CB6326EE256AC3ED004AB7
:101D500002F25C63B0EE464AC3ED003A77EE677A72
:101D6000F0EEE77AA5EEA74AB5EE404AF1EE10FA9A
:101D700000F03086DFED935ADFED937A26EE256A88
:101D8000C6EE045A35EEA76A934B75EE477A8F4A32
:101D900026EE077A93F84A1002F5696377EEA66A91
:101DA000A1F1FF018D4883ED006A02F69463B1FA58
:101DB00081F176EEAAAA83ED007A490912F0A8F81B
:101DC000874B20EE090A03F58050D3F8541700F62C
:101DD000DC6200F56F6300F6EC6A01F2DB5ED2EDC7
:101DE000007A20EE280A93ED007A794A27EE677A86
:101DF000DAED007A0191F0EEC05AC3ED007A00F6F8
:101E0000D86340F2DC507649D3ED006AA2FB0EC3E2
:101E1000AAF1040C5B09A6EEA77ADCED007A00FBC0
:101E200013E3AAF10C0EC1F85437D1F85817DEEDC0
:101E3000006A0B44AAF6EC61A6EEE77AA1F6B80BAD
:101E400003F1010EA1F58051DBED007A70EE277AE7
:101E500037EE877A8AED007AA2FB03BAA2FB0EB2B4
:101E600001F2547B4FEA5A1A520900FB1A3A0B4608
:101E700000FB12E0019903F5805203F5EA630BEBD6
:101E8000810102F6E462D3ED006A0BEB8A0A136863
:101E90000BEB8000C2ED007ACCF80030ABF1080308
:101EA00081ED027A9AED026A90ED027A93ED005A82
:101EB00037EE467AA7EE266A65EE856AF0EE667A18
:101EC00030EE067AB0EE469AB0EEC77AE5EE077AC3
:101ED000F5EE407AF1EE10FA00F078859FED396A60
:101EE0009FED397A66EE866A86EEA74A34EE074A97
:101EF0003C4BF0EEC96A64EE093A03F50050D3F8A2
:101F00008C1F00F2247A00F5E56300F2147201F2EE
:101F1000DB5E9AED005A93ED007AD2ED007A83ED04
:101F2000005A00F5E2632A4A27EE677AD3ED007A79
:101F300040F2DC50A2FB0EC3AAF1040C0191A7EE03
:101F4000857A5B092749DCED007A00FB13E3AAF1EF
:101F50000C0EC1F88C3FD1F8901F9EED006A0B4427
:101F6000AAF22471A6EE677AA1F5845B03F1010E53
:101F7000A1F500519BED005A39EE055A35EE077A6E
:101F80008AED007AA2FB03BAA2FB0EB201F68C7BAB
:101F90004FEA5A1A520900FB1A3A0B4600FB12E0AC
:101FA000019903F5005203F688730BEB810102F2ED
:101FB0001C72D3ED004A0BEB8A0A136814E000BFD1
:101FC0004456022490C2753D6666663F44B60224BC
:101FD000F119760544A60224D09304246C950424B8
:101FE00044060324441603240BEB800082ED005AC0
:101FF000CCF80030ABF1080381ED027A9AED026A69
:1020000090ED027AF0EE467AF04A37EE467AE7EE45
:10201000247AD3ED004A02F2447326EEA47A83EDCB
:10202000004A02F5E963B0EE476AC3ED003A39EEC3
:10203000275AB0EEC55AA4EE856AB5EE406AF1EEB5
:1020400010FA00F0BF849FEDEA5ADFEDEA6A27EE4E
:10205000057A87EE065A75EE266ADD4B66EEA74ACC
:1020600039EE676A03F58050D3F8341800F6BC7275
:1020700000F57D6300F6CC7A01F2DB5E93ED007A29
:10208000D2ED007AD34A27EE677ADAED007A019131
:10209000C3ED007A00F6B87340F2DC50CC4993ED02
:1020A000005AA2FB0EC3AAF1040C5B09A5EE277A25
:1020B000DCED007A00FB13E3AAF10C0EC1F8343812
:1020C000D1F838189EED005A0B44AAF6CC71A5EE53
:1020D000677AA1F5FB6B03F1010EA1F58051DBEDF1
:1020E000007A70EE277A37EE877A8AED007AA2FBC3
:1020F00003BAA2FB0EB201F6340B4FEA5A1A520988
:1021000000FB1A3A0B4600FB12E0019903F58052DE
:1021100003F503630BEB810102F6C47293ED005AE1
:102120000BEB8A0A13680BEB8000C2ED007ACCF847
:102130000030ABF1080381ED027A9AED027AD0ED1E
:10214000027AA54A77EEC77AA7EE857AD3ED007AB0
:1021500002F67C7367EEA55AC3ED006A02F5786358
:10216000B0EE655AC3ED004A30EE070AB0EEC00A81
:10217000A7EE805AB5EE405AF1EE10FA00F01E8438
:10218000DFED9B6ADFED9B7A65EEA65AC5EE854AC8
:1021900074EEA74A914B40F2DC5CB0EEC75AA3F54F
:1021A000C051A3F5006293ED002A24EE873A02F6AF
:1021B0000803C86E02F2F47291ED194AD3ED006A79
:1021C000A3F1040BD2ED003A00F2DB5AD1ED185A1C
:1021D000F1EE477AD1ED1A2A01EB800166EEE36A4F
:1021E000DBED003A0191A3F60801C3ED003A75EE6C
:1021F000C75A784A01F5FE63A1F5805125EE045ACD
:10220000D3ED001AA2FB0A03086F5B09E1EEA36A93
:102210000CFB13A3CB66034401F5805101F5FF6E5F
:10222000591CDEED003AA2FB030EA2FB0102684836
:102230004FEA5E1EE3EEC26A52090CFB1E330CFB32
:102240001211674A00F6240C02EB830302EB8101B2
:1022500002F58052CCED004A76EEA56A02F2FC72DD
:10226000D2F800C0C2ED005AC2F804C0019ACBED0A
:10227000006AC2ED1D6AD3ED1D5A00F62803D1EDA8
:102280001D6A83ED003A76EEE56AE6EEA25AF0EEBC
:10229000456A35EEC77AB0EEC77AE4EE076AF5EE26
:1022A000406AF1EE10FA00F086839FED517ADFED7F
:1022B000514A25EE075A85EE267A37EE247A77EED4
:1022C000E57A474B67EE255A464883ED177A40F288
:1022D000DC5A77EE867AC3ED185A434B77EEAAAAFA
:1022E00093F85A10A1F1FF01B1FA81F1490911F0F7
:1022F0000FFE95ED2F7A95ED2A6A20EE080A3B49EC
:1023000027EE467AD5ED2E7AD1F820390A46D1F853
:10231000240901F61411D5ED295A03F2DB5CC5ED51
:102320002F7A20EE280AA5EEA77AD1ED007A294966
:10233000D5ED2D6A70EE277AA1FB0CE195ED2B6AA5
:10234000B0EEC05A4909A6EE667A0AFB11C10844EC
:10235000C2F8201902F512611E4A00F1010E01EBCC
:10236000830CA2FB00B3A2FB0EB237EE877A5B09A7
:1023700052090AFB13030AFB12EED5F8B02001EB59
:102380008303C5ED2C7A01EB8E01C5F8B420174A02
:1023900085ED2E7A8CED027AD3ED026A02F61C13DB
:1023A00091ED027AD3ED007A02F6181337EE667AD1
:1023B00093ED006AE7EE276A25EE067AF0EE475ABB
:1023C00070EE267AF0EEE77A16E000BF44060324AA
:1023D00044660324F119760544160324449E03241D
:1023E000448603249C950424D093042444C60324E7
:1023F00090C2753D6666663FE6EE275AF5EE405A96
:10240000F1EE10FA00F0D4821FED076A5FED077A53
:1024100027EE067A87EE256A36EE276AEF48F0EE59
:10242000E65AD5F8582166EE263A00F6F40300F590
:102430000E6102F2DB5A05EB820C93ED007A00F597
:102440000F6291ED004AE64927EE447A92ED004A88
:10245000D5ED537A83ED004A00F6DC03D5F85C0134
:1024600076EEA77AD3ED002AA1FB0AE340F2DC5E08
:1024700095ED553A5B09A2EE847AD5ED544A0EFBF0
:1024800013A3A2F1040A65EEA45AC5F85831034417
:102490009AED004AA2F10C00D0ED002A581CA2EEE1
:1024A000C47AB0EE654A37EE877A82ED007AA1FBF6
:1024B00003B2A1FB00B1520949090EFB1233AAF67F
:1024C000EC020EFB1100AAF10401A2F5405205EB4B
:1024D000830305EB800002F5116282ED006A0A6851
:1024E000C1ED007ACAF800208CED587AD3ED587A05
:1024F00090ED587ABB4A37EE677A02F61413E7EE8E
:10250000037AC3ED003A36EEA77AB0EEC77AA4EEAE
:10251000874AB5EE404AF1EE10FA00F046829FED90
:10252000B26A9FEDB27A65EE865A85EE846A36EE1F
:10253000076AAF4966EE273A94ED677A40F2DC5AB3
:10254000D1F8003A0A46D1F8040A01F6F41103F270
:10255000DB5CD4ED624A85ED526A36EEE76AD1ED76
:10256000007A27EE647A9E49D4ED665A70EE277A97
:10257000A1FB0CE194ED613AD4ED654A4909A3EE63
:10258000257A94ED634A0AFB11C1C4ED675A0844E9
:10259000C2F8001A02F52061914A00F1010EA4EE82
:1025A000647A01EB830CA2FB00B3A2FB0EB25B09C1
:1025B000C5ED533A52090AFB13030AFB12EE37EE3C
:1025C000877AD4F8902101EB830301EB8E01C4EDEF
:1025D000647AC4F89421864A84ED667A8CED027A96
:1025E000D3ED027A02F6FC1391ED027AD3ED006A84
:1025F00002F6F81337EE677AE7EE267A93ED007A63
:1026000027EE055AF0EE456A30EE270AB0EEC00A12
:10261000E7EE006AF5EE406AF1EE10FA00F0C281D2
:10262000DFED715A9FED717A25EE255AC5EE264AE7
:1026300074EE874A6F48B0EEE75AD4F8382224EE99
:10264000A73A00F6D41300F51C6102F2DB5A04EB42
:10265000820CD3ED006A00F51D62D1ED003AB1EEB7
:10266000677A5F4966EEE36AD2ED003AD4ED8B5AA1
:10267000C3ED003A00F6BC13D4F83C0275EEE75AFD
:1026800093ED002AA1FB0AE340F2DC5ED4ED8D2A33
:102690005B09E2EE236A94ED8C4A0EFB13A3A2F1D0
:1026A000040A25EE045AC4F838320344DAED003A3D
:1026B000A2F10C0090ED002A581CE2EE636A76EE5F
:1026C000A56AC2ED006AA1FB03B2A1FB00B15209E9
:1026D00049090EFB1233AAF6CC120EFB1100AAF127
:1026E0000401A2F5405204EB830304EB800002F5E1
:1026F0001F62C2ED004A0A68C1ED005ACAF8002004
:10270000CCED906AD3ED905AD0ED906A384A76EECF
:10271000E56A02F6F413E6EEA25A83ED003A75EE8E
:10272000E76AF0EE457AF0EEE66AE4EE267AF5EE38
:10273000407AF1EE10FA00F03281DFED2B6ADFED26
:102740002B4A25EE265AC5EE276A76EEA46A77EE66
:10275000657A02999FED287A66EEA55A009A77EE7F
:10276000867A0B68C4ED8A6A03EB8203C4ED8B5A48
:1027700077EEAA7A67EE877AC3ED007A4B6803EBAF
:102780008203C3ED007A531C039A00939A4200F02F
:102790005D811A4944F2A71219484B68D1ED007ABD
:1027A00002FB03F300EE103A4B60BAEEE00A20EEB3
:1027B000270A8DED010A11F027FC9DED010A114851
:1027C00011F022FC9DED010A0F4811F01DFC9DED5A
:1027D000010A0E4811F018FC1AE000BF44F6032469
:1027E000F119760544C6032490C2753D6666663FBE
:1027F0004426042444560424EBA82A3E309304249F
:102800001C91042468910424B491042400920424AB
:102810009DED010A904811F0F7FB9DED010A8F48EC
:1028200011F0F2FB8E4B8F48D3ED0CBAD3ED1FAAFB
:1028300093ED32AAD3ED459A93ED589A93ED6B8AB6
:1028400011F0AAFCF7EE007A874BB6EE086B93ED19
:10285000007AF9EE000A37EEC00AD3ED017A30EEC5
:10286000077A27EE277AB7EEC77A37EE067BB0EE07
:10287000C77BB7EEC70B12F06FFA7C4B7C4893ED29
:10288000000A11F089FE7B4BB0EE40BA7A4893ED16
:10289000000A11F081FE794B7948F0EE408A997A6E
:1028A000A1F1FF01B1FA81F1490911F031FB75483D
:1028B000754B20EE2B0A00F2AC727449D3ED007A0E
:1028C00092ED005A00F2BC72736A20EE0B0A67EEBA
:1028D000C57A92ED005A03F2DB5A06EB830C00F541
:1028E000F86396ED067AD6ED084AF0EEC05A83ED0D
:1028F000005A00F5F563B06A30EE077A93ED004AAE
:10290000A1FB0AE340F2DC5E96ED076A5B09E4EEA8
:10291000057A65EE866A0EFB13A3A2F1040A7362C0
:1029200003449AED005AA2F10C0090ED004A581CA5
:10293000E4EE457AB0EE665A77EE277AC2ED007A79
:10294000A1FB03B2A1FB00B1520949090EFB1233EE
:102950000EFB1100AAF1040106EB83030A6806EBE3
:10296000800081ED007ACAF80020CCED0B7A93ED5F
:102970000B7AD0ED0B7A77EEC77AA7EEA47A70EED9
:10298000077AF0EEE77AA6EE275AB5EE405AF1EE56
:1029900010FA7EF4CBA8DFED3E7AFEF7D1B8DFED7A
:1029A0003C6AD4E6DFED3A4A44E69FED396AC0E579
:1029B0009FED376A32E59FED367A80E4DFED344AE9
:1029C000FFF7E8BBDFED326AFFF747BB9FED304A08
:1029D000FFF78EBA9FED2E6AFFF7D6B9DFED2C4ACE
:1029E000FFF733B99FED2A6AFFF77CB8DFED283A8D
:1029F000FEF7D9BFDFED267AFEF720BFDFED244AD0
:102A0000FEF76CBE9FED226AFEF7CBBDDFED206ABC
:102A1000FEF73FBDDFED1E7AFEF784BC9FED1C6A1A
:102A2000FEF7FBBB9FED1A5AFEF76ABBDFED186A93
:102A3000FEF7E3BADFED167AFEF72EBADFED145A91
:102A4000FEF7A5B99FED125AFEF712B905B0BDEC1D
:102A5000088BBDE8F08F00BF4C92042498920424A8
:102A60001C910424389304240C9104246C940424B1
:102A7000709404248C94042490940424D09304240B
:102A8000AC94042444160024041E0024F119760595
:102A90000000000041F64401002200F10C03014453
:102AA00002604260826010B546F2EC0404440022E9
:102AB00041F6380CDFF870E0DA601A61C3F808E01C
:102AC000634441F89C2CA34241F8982C41F8942C83
:102AD00041F8902C41F88C2C41F8882C41F8842C3A
:102AE0006144E4D147F624114CF2CC14014404446F
:102AF000002241F6380CDFF830E0DA601A61C3F8E2
:102B000008E0634441F89C2C9C4241F8982C41F821
:102B1000942C41F8902C41F88C2C41F8882C41F8E9
:102B2000842C6144E4D110BD48E17A3F38B5134CA0
:102B30002DED028BB0EE408A04F590750121204600
:102B4000B0EE480A11F0CEF82046DFED0D0AB4EEE3
:102B5000000A11F037F920469FED0A0A11F088F9B2
:102B6000B7EE000A2046303404ED0C0A11F0A8F943
:102B7000AC42E3D1BDEC028B38BD00BFAC94042461
:102B8000000000001283003E2DE9F043002385B0D1
:102B900000F118064FF00A0804464FF05E090D4692
:102BA0008DF80D30CDF80080012390F82C101746D9
:102BB000304603AA8DF80C9002F07EFCCDF8008020
:102BC0000DF10B0294F8303094F82C10002818BF47
:102BD00043F00103304684F83030012302F094FCC6
:102BE00094F83030002818BF43F0010384F83030E7
:102BF000A5F17303072B01D94D4517D10A2303AA69
:102C000030468DF80C50009302238DF80D7094F827
:102C10002C1002F051FC94F83030002818BF43F01B
:102C2000010384F8303005B0BDE8F083022303AA25
:102C3000CDF80080304694F82C1002F03DFCCDF821
:102C4000008094F8303003AA94F82C10002818BFA4
:102C500043F0010330468DF80C5084F830300223E5
:102C60008DF80D7002F028FCCDF80080054694F830
:102C7000301003AA9DF80B303046002D18BF41F0EC
:102C800001018DF80C908DF80D30022384F830107E
:102C9000BDE700BF2DE9F04F0021E448DFF8C49301
:102CA0002DED068B95B000F0C5FDE14B0421DF480A
:102CB000059300F037FDDF4B0321DC48079300F05C
:102CC00011FDDA48DC4900F009FD0023184606939F
:102CD00001F0D0FFD54841F2B87B00F01FFD059B05
:102CE000DFEDD67A46F2E006F3EC019A47F6980853
:102CF000A9F10C05CB44059344F69C0339EEA79A41
:102D00004E444B44C8444C4609ED030A049349ED34
:102D1000029A49ED017A19ED038A04F580579FED77
:102D2000C87AF0EE008A07F5F26341F2EC7AC7EE5A
:102D3000087A85ED049A85ED038A0AEB0400B0EE6B
:102D4000480AC5ED077A83ED008A83ED019AC3ED49
:102D5000028A11F035F9B0EE490A0AEB040011F0CD
:102D6000B7F92A6907F5F7630421C7F8B8179A601D
:102D700083ED018AC3ED038ADBF800308B4233D147
:102D80009BED028ADFEDAF7A9BED010A68EE277AB0
:102D900087EE800A12F074F9DBED036A8BED040A0A
:102DA00088EE267AB0EE406A60EE006AF7EE007AAE
:102DB000CBED087A76EEE77A96EE876A8BED057AA8
:102DC000A6EE870A77EE076A66EEA76A77EE007AC4
:102DD00037EE067A86EEA76AC7EE276A8BED076A9A
:102DE000CBED066ACBED096A002141F2707204F165
:102DF000200046F2E00713F04DFA002240F2DB53C8
:102E0000DFED8F6AA261274495ED036AB0EE00AA58
:102E100095ED047A07F5805ADFED888A47F6CC00F5
:102E2000C6EE077A2044039079EEE88ABDEEE77A91
:102E300017EE102AB8EEC76A9A4277EEC67A28BF14
:102E40001A460AF5F263E261C4ED057A19ED038AC8
:102E5000C6ED018AC6EE887A86ED008AB0EE480A91
:102E6000C6ED047A83ED008AC3ED018A83ED02AAE0
:102E700011F0A6F80398B0EE680A11F029F971680C
:102E80000AF5F7630420CAF8B807996083ED03AA2E
:102E900083ED018AD8F80030834233D198ED028A5D
:102EA000DFED687A98ED010A68EE277A87EE800AEE
:102EB00012F0E6F8D8ED036A88ED040A88EE267A67
:102EC000B0EE406A60EE006AF7EE007AC8ED087A6C
:102ED00076EEE77A96EE876A88ED057AA6EE870A9F
:102EE00077EE076A66EEA76A77EE007A37EE067A23
:102EF00086EEA76AC7EE276A88ED076AC8ED066AFC
:102F0000C8ED096A41F2707204F5C240002113F065
:102F1000C1F90023BB6140F2DB53D6ED006A96EDA8
:102F2000017AC6EE877ABDEEE77A17EE102AF8EE40
:102F3000C76A9A4277EEE67A28BF1A4641F6380306
:102F40001D441C449B441E449844049BFA619D42CA
:102F5000C7ED057A7FF4DFAE069C09F54149C4F15F
:102F60001C0009F1CC09C0B200F0A2FB364A0346AE
:102F70009FED360A02EB04100134ADF824300999B4
:102F8000069401F0ADFE294800F0C8FB079D2846D5
:102F900011F016F82B46059A28464C3312ED010A1B
:102FA000079311F095F8062C7FF494AE1F4800F0BB
:102FB000B5FB274B274C4FF080421B789FED268AAC
:102FC000042B84ED010A84ED028A2360E2604BD178
:102FD000DFED227A87EE800A12F052F8DFED206AE8
:102FE00084ED040AC4ED056A20EE007AB0EE406A72
:102FF000F0EE407AF7EE005A97EE266AE7EE267A70
:1030000037EE657AC4ED085A27EE087A77EEA67A8D
:1030100076EE266A87EE276A86EEA77A84ED076A3F
:1030200084ED067A84ED097A1EE000BF3094042412
:10303000040000241C910424710A00086666E63E20
:10304000007BA748D00FC940D093042400007A44E5
:103050001C0000249C9304240000DC4397C92C45E9
:1030600000005C4350060024C94B4FF001094FF0AB
:103070007E55C848C3F804904FF000081D6000F06A
:103080004DFBFFF753FDC34800F048FBC24810F06A
:1030900097FF9FEDC20AC0480AAF11F019F8C04B64
:1030A0004FF07C52BF4CDD60BE465A60A446BE4A1B
:1030B00004F11C054FF0100ACDF83C80A2604126B7
:1030C00010925A22227440F20C62A2820022C4E9B9
:1030D00000891A609A60BCE80F00DCF800C00FC7D6
:1030E000C7F800C0BEE80F000FC50FA904F1180013
:1030F00085F800C0CDE911988DF84CA002F046F992
:1031000094F8303080216322404518BF43F001031A
:10311000204684F83030FFF737FD484603F048F981
:1031200042465E212046FFF72FFD94F814A094F844
:1031300015900A254FF000085E2794F82C10012303
:103140000FAA009599488DF83D808DF83C7002F0EB
:10315000B3F994F83010012300950AAA404518BF2E
:1031600041F00101914884F8301094F82C1002F0DD
:10317000CBF994F8301002230095404518BF41F078
:1031800001010FAA894884F8301094F82C1002F03D
:1031900093F994F8301002230095404518BF41F090
:1031A00001010FAA814884F8301094F82C108DF892
:1031B0003C608DF83DA002F07FF994F830C0022306
:1031C0009DF82820404518BF4CF0010C00958DF863
:1031D0003D200FAA84F830C094F82C1073488DF865
:1031E0003C7002F069F994F83010012300950FAAA1
:1031F000404518BF41F001016C488DF83D8084F8CE
:10320000301094F82C108DF83C7002F055F994F8B9
:103210003010012300950AAA404518BF41F0010172
:10322000624884F8301094F82C1002F06DF994F88C
:10323000301002230095404518BF41F001010FAA4C
:103240005A4884F8301094F82C1002F035F994F8AC
:1032500030C0721C0095404518BF4CF0010C022391
:1032600094F82C1002368DF83C200FAA84F830C058
:10327000F6B24E488DF83D9002F01EF994F83020D9
:10328000022300959DF8281040450CBF154642F0DA
:1032900001050FAA45488DF83D1084F8305094F888
:1032A0002C108DF83C7002F007F994F8303040454E
:1032B00018BF43F00103592E84F830307FF439AF42
:1032C00001222B213748FFF75FFC01222C213548D2
:1032D000FFF75AFC2D2133480E22FFF755FC4246DA
:1032E0002E213048FFF750FC01222F212D48FFF7F7
:1032F0004BFC052230212B48FFF746FC31212948A1
:103300000122FFF741FC424632212648FFF73CFCF0
:10331000424633212348FFF737FC424634212148F7
:10332000FFF732FC424635211E48FFF72DFC42468E
:103330005B211C48FFF728FC10225C211948FFF78D
:1033400023FC20225D211748FFF71EFC39468C2202
:103350001448FFF719FC0F4884F8308000F0DEF9BC
:10336000F4EE000A124811F005F90A4800F0D6F907
:10337000F4EE000A0F4811F0FDF8064800F0CEF90F
:10338000B7EE006AF0EE407A0B4D4FF07C5317E039
:103390003093042430940424E492042400007644FE
:1033A0000C910424689304240108010980930424E7
:1033B0007094042490940424389304240000C84298
:1033C0001FED027A2846584EC6EE276A6B60EB6006
:1033D000564BC5ED057A2B610023B0EE470A85ED0B
:1033E000027AEB61524FC5ED066A11F0B7F840F270
:1033F000011385ED080AB5EE000A2846AB8585F86D
:10340000008085ED020A11F0A9F885ED080A494D02
:103410004FF00A094FF0000894F82C1001230AAA73
:10342000CDF800904448C2468DF8288002F044F858
:1034300094F830C0022394F82C100FAA404518BF0E
:103440004CF0010CCDF800903B48C34684F830C0E6
:1034500002F05AF8BDF83C10024694F83030C1F33F
:103460000B013648424518BF43F00103B1EB080198
:1034700084F8303018BF012100F070F94FF0040CCF
:1034800094F82C1001230AAACDF800902A488DF850
:1034900028C002F011F894F830C0022394F82C10E0
:1034A0000FAA404518BF4CF0010CCDF800902248FF
:1034B000C14684F830C002F027F894F830C0BDF857
:1034C0003C301021404518BF4CF0010C0F22A5F8EC
:1034D0000080A6F8008084F830C003E083B2AAB16F
:1034E000013A01395FEAD33C4FEA4300F6D00429A0
:1034F000A2F1030E04DD1FFA8EF8E14683B2EFE776
:103500001FFA81FBE24683B2002AE9D13B80BAF17F
:10351000000F01D0A5F800B0B9F1000F3FF478AF6B
:10352000A6F8008074E700BF06960424DB0F49402C
:1035300008960424049604248093042430940424DC
:1035400038B541480023414C414D424A424903604D
:103550004361036211F058F8204604F54144FFF737
:1035600099FACC34AC42F7D100203A4A3B490446A0
:1035700011F04AF83A485A2301223A490361C362DA
:1035800040F20C6302624361816041623649C0E9E6
:103590000042C0E906442F4A11F036F82D4A33495B
:1035A000334811F031F82B4A3249204611F02CF8FB
:1035B000284A3149314811F027F8264A3049314824
:1035C00011F022F8304B03F59070303300222F4970
:1035D0000024834243F8302C43F82C2C43F8281C59
:1035E00043F8242C43F8201C43F81C1C43F8181CF7
:1035F00043F8142C43F8102C43F80C2C03F8044C1B
:1036000003F8034CE1D1134A2046214910F0FCFF96
:10361000104A2049204810F0F7FF0E4A1D491F4864
:1036200010F0F2FF0B4A1E491E4810F0EDFF094A48
:103630001B491D4810F0E8FF2046064A1B49BDE81B
:10364000384010F0E1BF00BF309404244406002449
:103650000C91042400000024450A00085D0A0008BB
:103660006893042401080109610A0008550A00084A
:10367000309304246D0A0008510A0008E4920424DF
:103680004D0A000838930424AC940424000080BF41
:10369000650A0008490A0008CC950424E89504242A
:1036A000590A00087094042490940424690A0008BC
:1036B000202882B009D8084B03EB400213F81030E1
:1036C000507843EA002002B0704701230C2043EAFF
:1036D000002002B0704700BF28770108143001F0C5
:1036E0000DBA00BF38B500F1140504462DED028B6C
:1036F000284601F0BFF9284601F0B8F92846B0EE97
:10370000408A01F0A1F9D0ED007AF8EE677A88EEF0
:10371000277ABDEC028B84ED0E7A38BD143001F0AF
:10372000A5B900BF38B500F1140504462DED028B94
:10373000284601F08DF9284601F098F92846B0EEA8
:10374000408A01F081F9D0ED007AF8EE677A88EED0
:10375000277ABDEC028B84ED0E7A38BD253001F05E
:1037600095BC00BFF0B5032399B000270125129343
:1037700006462C4B09A81595CDE90E7340F204536B
:10378000ADF84030284BCDE91357099301F094FB75
:1037900009A801F06DFC002836D1244B04AF044683
:1037A0000090CDF842301023394604958DF8203032
:1037B0001F4BCDE91650CDE906506846059301F040
:1037C000E5FD0823009A01A909A8ADF804508DF879
:1037D000064009940295039300F0E4F800230EA933
:1037E00038463024049302F0C3FB03224FF07E538B
:1037F00009A906F114000B930C93CDE90942049A30
:1038000001F0EAF819B0F0BD40F60132074B169707
:1038100004AFADF824200998CDF84230179500F098
:1038200081F8DBE704020404030300010406040337
:103830000704010B2DE9F04304462DED028B83B004
:10384000002948D0012140F2011200230091ADF877
:1038500004208DF80630304A0126304B271D3049B0
:1038600004F12908626040F20272A36040F6066328
:10387000E16004F125092682A4F8252084F8276058
:10388000A4F8293084F82B6002F000FF6946054651
:1038900048B304F130008DF8066002F055FE072DA4
:1038A00034D104F114052046FFF75CFF284601F0EF
:1038B000DDF82846B0EE408A01F0C6F8D0ED007A77
:1038C000F8EE677A88EE277A84ED0E7A03B0BDECC5
:1038D000028BBDE8F08340F2011300918DF80610D1
:1038E000ADF80430B7E704F1300002F02DFE3946A0
:1038F000204601F0BDFF484601F0DEFA404601F0E7
:10390000DBFA04F1120000F077F9CAE739462046E5
:1039100001F0AEFFC5E700BF05080509050705066C
:10392000050A060610B584B003460124ADF804006C
:1039300003A8ADF80C30ADF80E4001F0BDFA2146F9
:1039400003A801F0A3FB204602F032FD002103A8EA
:1039500001F09CFB204602F02BFD214603A801F05C
:1039600095FB04B010BD00BF10B5C2F3002384B0B6
:103970000C46017C8DF80D2043EA4402FA24022310
:103980008DF80C2003AA009401F096FD18B10124D3
:10399000204604B010BD04460A2002F009FD20466E
:1039A00004B010BD034670B543F8042B044684B040
:1039B00007C983E80700A37983B91A210B461E22A1
:1039C000FA2523742046ADF80C20022303AA0095A3
:1039D00001F072FD28B1012004B070BD1B210B461F
:1039E000EDE70A2002F0E4FC4FF4B8520095022300
:1039F000ADF80C20204603AA217C01F05DFD0028D3
:103A0000E9D10A2002F0D4FC41F2027200950223AF
:103A1000ADF80C20204603AA217C01F04DFD0028C2
:103A2000D9D10A2002F0C4FC042200950223ADF88B
:103A30000C20204603AA217C01F03EFD0028CAD1BB
:103A40000A2002F0B5FC062200950223ADF80C20F6
:103A5000204603AA217C01F02FFD0028BBD10A20BB
:103A600002F0A6FC41F2082200950223ADF80C20DA
:103A7000204603AA217C01F01FFD0028ABD10A20BB
:103A8000064602F095FC0095022303AA217C2046FD
:103A9000ADF80C6001F010FD00289CD1304602F01A
:103AA00087FC009522790C232046002A8DF80C30E3
:103AB00003AA4FF0020314BF622142218DF80D10BA
:103AC000217C01F0F9FC002885D1304602F070FC21
:103AD0002279D4E902310B43DBB20AB943F0400347
:103AE00062790AB143F020030E22FA258DF80D30D9
:103AF0002046009502238DF80C2003AA217C01F0BA
:103B0000DBFC00287FF467AF0A2002F051FC102292
:103B100000950223ADF80C20204603AA217C01F079
:103B2000CBFC00287FF457AF0A2002F041FC1221A1
:103B300000950223ADF80C1003AA217C204601F069
:103B4000BBFC00287FF447AF0A2002F031FC0122C1
:103B500009212046FFF708FF003818BF01203BE786
:103B6000F0B5102387B0234C012200250126002741
:103B700002A920460195CDE902234FF48052CDE9F8
:103B8000046709F05BFC642003F0BEFB02A94FF45C
:103B900080522046CDE9046702261027CDE902674E
:103BA00009F04CFC0322102302A92046CDE9022390
:103BB00000230422CDE904234FF4805209F03EFC97
:103BC00040F23223042202A9019310232046CDE9BA
:103BD0000223019A012305924FF48052049309F0C5
:103BE0002DFC40F60601204609F048FC284607B0A7
:103BF000F0BD00BF149604241C4B00221C494FF05A
:103C0000400C30B5054689B00220596007219A6002
:103C10001A620124DA620A224FF4006EDC60069216
:103C20002022CDE9000104200821CDE90201032072
:103C30001021CDE9040108206946C3E904024FF4CC
:103C4000C072181DC3E906C24FF48052C3E909E2ED
:103C500009F0CAFB38B92846FFF782FF003818BFC1
:103C6000012009B030BD204609B030BD10960424B3
:103C700040410052614A0021D0B513688EB00A91CC
:103C8000002B40F0B9805E4B01214FF683700C246D
:103C900011600221D3F8D4200026032742F4805279
:103CA000C3F8D420D3F8D42002F480520092009AB2
:103CB000D3F8E02042F01002C3F8E020D3F8E0206F
:103CC00002F010020192019AD3F8E02042F0400283
:103CD000C3F8E020D3F8E02002F040020292029AFA
:103CE000D3F8E02042F00802C3F8E020D3F8E02047
:103CF00002F008020392039AD3F8E02042F48072A3
:103D0000C3F8E020D3F8E02002F480720492049A11
:103D1000D3F8E02042F08002C3F8E020D3F8E0209E
:103D200002F080020592059AD3F8E02042F02002CA
:103D3000C3F8E020D3F8E02002F020020692069AB1
:103D4000D3F8E02042F00402C3F8E020D3F8E030DA
:103D50000C9403F0040307930323079A0B93CDE914
:103D6000080108A9274804F075FB48F2371202231E
:103D700008A925480C94CDE90823CDE90A6704F089
:103D800069FB4CF20372022308A920480C94CDE988
:103D90000823CDE90A6704F05DFB40F2FF620223CD
:103DA00008A91B480C94CDE90823CDE90A6704F063
:103DB00051FB4FF60C72022308A916480C94CDE96A
:103DC0000823CDE90A6704F045FB4FF63F020223C2
:103DD00008A911480C94CDE90823CDE90A6704F03D
:103DE00039FB2022022308A90A480C94CDE90A676E
:103DF000CDE9082304F02EFB0EB0D0BD0C960424B0
:103E0000004402580010025800180258000C0258D2
:103E100000200258001C0258001402582DE9F04FEF
:103E2000DFF8108406460D46144608F118002DED03
:103E3000028B89B000AF02F093F9D8F8183073B351
:103E4000D8F81C30D8F80490002B43690BBF4FF012
:103E5000080A4FF0100A4FF0020B4FF0040BB9F1B3
:103E6000000F2AD0A200EA46012B02F1070222F03D
:103E70000702ADEB020D6846ADEB020D694600F09E
:103E80003F81022B00F0D680002B6FD02246C8471E
:103E9000D5462437BD46BDEC028BBDE8F08FD8F87F
:103EA0001C30002BF5D0D8F804904FF0080A4FF0E2
:103EB000020B4369B9F1000FD4D1FB61D8F800308F
:103EC000BB61002BE5D0D54802F0BCF96B46BBF1D5
:103ED000020F786108EE103AFB6900F083816A46B0
:103EE0005146A2EBC40295466200EA46B2FBFBF2E1
:103EF000AAEBC40085460AEB8200EE46F861ADEB02
:103F0000010DF8690EEB820CC7F810C0EC46ADEB62
:103F1000010D00EB8201CCF80400CCF8081001EB95
:103F200082013869E946CCF80C1000EB8201CCF82C
:103F300000A001EB8202C9E900E0C9E90212012BED
:103F400000F06483022B00F06C82002B00F0808173
:103F5000620849466046BB69984718EE103A243714
:103F60009D46BD46BDEC028BBDE8F08F002C8DD088
:103F70001A46D8ED0C6A9FEDB27A8446331D36F9A5
:103F800022E00CF1080C07EE90EA33F922E002324D
:103F9000F8EEE77A944267EE877A67EEA67A4CED00
:103FA000027A07EE90EAF8EEE77A67EE877A67EE34
:103FB000A67A4CED017AE2D8F9612246C847984EBC
:103FC000D8ED0D6A0020F9692B1D9FED9E7A9FEDBB
:103FD0009E6ADFED9E5A22E0F4EEC67AF1EE10FA08
:103FE000C0F2C88447F6FE72D1ED017A45F8202070
:103FF00066EEA77AF4EEC77AF1EE10FA40F2F0809E
:10400000F4EEC67AF1EE10FAC0F2D58447F6FE72ED
:1040100043F820200230083184427FF639AFD1EDD9
:10402000007A66EEA77AF4EEC77AF1EE10FAD3D8EA
:104030003246D9E7002C3FF429AFD8ED0C6A84460C
:104040009FED787A0022331D8E4656F822100CF12F
:10405000080C07EE901A53F822100232F8EEE77AB5
:10406000944267EE877A67EEA67A4CED027A07EE05
:10407000901AF8EEE77A67EE877A67EEA67A4CED4B
:10408000017AE2D871462246C7F81CE0C847664E5E
:10409000D8ED0D6A0020F9692B1D9FED6A7A9FED1E
:1040A0006A6ADFF894C120E0F4EEC67AF1EE10FA05
:1040B000C0F279843246D1ED017A45F8202066EECF
:1040C000A77AF4EEC77AF1EE10FA40F28780F4EEA8
:1040D000C67AF1EE10FAC0F25E84324643F8202030
:1040E0000230083184427FF6D3AED1ED007A66EE1D
:1040F000A77AF4EEC77AF1EE10FAD5D86246DAE77D
:10410000002C3FF4C3AED8ED0C6A86469FED477A8B
:104110004FF0000C331D56F82C200EF1080E82F4DF
:104120000002A2F5000207EE902A53F82C200CF1B1
:10413000020CF8EEE77A82F400026445A2F5000270
:1041400067EE877A67EEA67A4EED027A07EE902A3E
:10415000F8EEE77A67EE877A67EEA67A4EED017A97
:10416000D9D8F9612246C847314ED8ED0D6A0020F2
:10417000F9692B1D9FED337A9FED336ADFF8BCC0E0
:104180001FE0F4EEC67AF1EE10FAC0F2FC8332467C
:10419000D1ED017A45F8202066EEA77AF4EEC77AD1
:1041A000F1EE10FA18D9F4EEC67AF1EE10FAC0F278
:1041B000DA83324643F820200230083184427FF609
:1041C00067AED1ED007A66EEA77AF4EEC77AF1EE2B
:1041D00010FAD6D86246DBE76246EBE762467DE737
:1041E000324615E7A100D6466208073121F00701E3
:1041F000ADEB010DEA46ADEB010D6946ADEB0E0DE1
:104200000AEB8200EC46ADEB0E0D01EB8202F86189
:10421000E946CCE900A0C9E9001290E664960424BE
:104220000280FFFF000000300082FF7F00000034AA
:1042300082FF7F0048960424007E00807E0080FF7D
:104240000000003804FF7FBF04FF7F3F00FEFF46F1
:10425000002C00F0C982BBF1020FD8F8242000F036
:10426000FA827969C7F8049002EB810E5FED0C5A6F
:104270008A00DCF808100EF104007A611A46DCF8B6
:104280000C303B61331DD7F810903D61FD69C7E9E3
:1042900002CB8C46834636F92210D8ED0C7A06EE16
:1042A000101A33F9221006EE901A3EF92210B8EED9
:1042B000C66A07EE101AF8EEE66A3BF92210B8EE6D
:1042C000C77A26EE256A66EEA56A27EE257A26EEDF
:1042D000276A66EEA76A27EE277A07EE901A51083A
:1042E0000232F8EEE77A0AEB8100944280ED006A30
:1042F00005EB810067EEA57AC0ED006A0CEB81004A
:1043000009EB810180ED007A98ED0C7A67EE877AEF
:10431000C1ED007ABFD8D7F804903D69D7E902CB48
:1043200060466208BB6949469847D8F82C307A69DC
:10433000D8ED0D6A1A441FED3D7A1FED3D6A2B1D25
:10434000904602F1040A5FED3F5A0022A84ED9E9D7
:1043500000EC51E0F4EEC67AF1EE10FAC0F2C7823A
:1043600047F6FE7045F822000CEB0100D0ED007A14
:1043700066EEA77AF4EEC77AF1EE10FA4BD9F4EEB6
:10438000C67AF1EE10FAC0F2BA8247F6FE70BBF1BF
:10439000020F43F822002BD0D9F808000844D0EDD2
:1043A000007A66EEA77AF4EEC77AF1EE10FA36D903
:1043B000F4EEC67AF1EE10FAC0F2CD8247F6FE7046
:1043C00048F82200D9F80C000144D1ED007A66EEDD
:1043D000A77AF4EEC77AF1EE10FA1ED9F4EEC67A97
:1043E000F1EE10FAC0F2AF8247F6FE714AF82210E1
:1043F000023294427FF6B1AD51080EEB8100890084
:10440000D0ED007A66EEA77AF4EEC77AF1EE10FAF4
:10441000A0D83046A6E73046B9E73146E6E7304651
:10442000CEE7002C00F0E081BBF1020FD8F8243079
:1044300000F0E1817A69DCF8081003EB820EC7F81E
:1044400004909300DFED6B5A0EF1040000227B61B3
:10445000DCF80C303B61331DD7F810903D61FD69ED
:10446000C7E902CB8C46834656F82210D8ED0C7A69
:1044700007EE101A53F82210B8EEC76A07EE101AAA
:104480005EF82210F8EEC76A07EE101A26EE256ACB
:104490005BF82210B8EEC77A66EEA56A26EE276AA8
:1044A00027EE257A66EEA76A27EE277A07EE901A9E
:1044B00051080232F8EEE77A0AEB8100944280ED6F
:1044C000006A05EB810067EEA57AC0ED006A0CEB8F
:1044D000810009EB810180ED007A98ED0C7A67EE9E
:1044E000877AC1ED007ABFD8D7F804903D69D7E943
:1044F00002CB60466208BB6949469847D8F82C3021
:104500007A69D8ED0D6A1A449FED3E7A9FED3E6AB6
:10451000131D9246DFF8E4C00022FB612B1D364ECE
:10452000D9E9008E4EE0F4EEC67AF1EE10FAC0F250
:10453000FC81304645F822000EEB0100D0ED007AF8
:1045400066EEA77AF4EEC77AF1EE10FA49D9F4EEE6
:10455000C67AF1EE10FAC0F2EF813046BBF1020FDD
:1045600043F822002AD0D9F808000844D0ED007A98
:1045700066EEA77AF4EEC77AF1EE10FA35D9F4EECA
:10458000C67AF1EE10FAC0F2C98130464AF822002C
:10459000D9F80C000144D1ED007A66EEA77AF4EE6A
:1045A000C77AF1EE10FA1ED9F4EEC67AF1EE10FADF
:1045B000C0F2AD813146F86940F8221002329442CF
:1045C0007FF6CBAC510808EB81008900D0ED007A72
:1045D00066EEA77AF4EEC77AF1EE10FAA3D8604639
:1045E000A8E76046BAE76146E5E76046CEE700BF68
:1045F0000280FFFF000000300082FF7F007E00800D
:104600000000003404FF7FBF04FF7F3F002C00F058
:10461000EB807A690021D8F82430C7F8109003EBBA
:10462000820ED7F81C909300FD610EF104021FED7D
:104630000C6A7B61331D154656F821204808D8EDD9
:104640000C6ABBF1020F82F40002A2F5000207EE31
:10465000902A53F8212082F40002B8EEE77AA2F5FE
:10466000000227EE067A07EE902A0AEB8002F8EEA7
:10467000E77A27EE267A67EE867A82ED007A09EBF2
:1046800080024FEA800067EEA67AC2ED007A27D05A
:104690005EF8212082F40002A2F5000207EE902AC3
:1046A00055F8212082F40002B8EEE77AA2F5000264
:1046B00027EE067A07EE902ADCF80820F8EEE77A73
:1046C000024427EE267A67EE867A82ED007A98ED2C
:1046D0000C7ADCF80C2067EE877A0244C2ED007A8F
:1046E00002318C42A8D8D7F8109060466208BB69A6
:1046F0004946FD699847D8F82C307A69D8ED0D6A9B
:104700001A441FED407A1FED406A131D9246DFF8F0
:10471000C4C20022FB612B1DAB4ED9E9008E4EE0D6
:10472000F4EEC67AF1EE10FAC0F2C580304645F8D4
:1047300022000EEB0100D0ED007A66EEA77AF4EECF
:10474000C77AF1EE10FA49D9F4EEC67AF1EE10FA12
:10475000C0F2BF803046BBF1020F43F822002AD0DE
:10476000D9F808000844D0ED007A66EEA77AF4EE96
:10477000C77AF1EE10FA35D9F4EEC67AF1EE10FAF6
:10478000C0F2AE8030464AF82200D9F80C0001444D
:10479000D1ED007A66EEA77AF4EEC77AF1EE10FA60
:1047A0001ED9F4EEC67AF1EE10FAC0F28B803146D3
:1047B000F86940F82210023294427FF6CEAB5108DD
:1047C00008EB81008900D0ED007A66EEA77AF4EE5E
:1047D000C77AF1EE10FAA3D86046A8E76046BAE7B8
:1047E0006146E5E76046CEE7224649466046BB693A
:1047F0009847FFF7B2BBC7F810B0002298ED0C6ADB
:10480000331DDFED726AD7F81CB0786956F82210B4
:1048100007EE901A53F82210B8EEE77A07EE901AD6
:1048200051080232F8EEE77A27EE267A0AEB810E7B
:1048300094420BEB810167EEA67A27EE067A67EECB
:10484000867A8EED007AC1ED007ADFD88300D7F842
:1048500010B07B614DE61A46C7F810B098ED0C6AAF
:10486000331DDFED5B6AD7F81CB0786936F922108A
:1048700007EE101A33F9221007EE901AB8EEC77A35
:1048800051080232F8EEE77A27EE267A0AEB810E1B
:1048900094420BEB810167EEA67A27EE067A67EE6B
:1048A000867A8EED007AC1ED007ADFD88300D7F8E2
:1048B00010B07B6134E5F0EE675AFEEEE45A15EE77
:1048C000900A34E7F0EE675AFEEEE45A15EE901ABD
:1048D0006EE7F0EE675AFEEEE45A15EE900A3AE7FC
:1048E000F0EE675AFEEEE45A15EE900A4BE767EEDB
:1048F000A57AFDEEE77A17EE900A00B232E567EE90
:10490000A57AFDEEE77A17EE900A00B23FE5F0EEE9
:10491000675AFEEEE05A15EE901A4CE6F0EE675A32
:10492000FEEEE05A15EE900A30E6F0EE675AFEEE23
:10493000E05A15EE900AFDE5F0EE675AFEEEE05AF9
:1049400015EE900A0AE667EEA57AFDEEE77A17EE15
:10495000901A09B24AE567EEA57AFDEEE77A17EEFE
:10496000900A00B22CE5F0EE675AFEEEE45A15EE1E
:10497000902A1FE467EEA57AFDEEE77A17EE902AFB
:1049800012B2FFF731BBF0EE675AFEEEE45A15EEB5
:10499000902AFFF7FDBBF0EE675AFEEEE05A15EEE7
:1049A000902AFFF79BBBF0EE675AFEEEE05A15EE39
:1049B000902AFFF780BB67EEA57AFDEEE77A17EE47
:1049C000902A12B2FFF724BB82FF7F000000003064
:1049D000000000387E0080FF30B5184C154685B0C9
:1049E000046004F1080EEC460FC98EE80F00D4ED08
:1049F000047AF5EEC07A8CE80F00F1EE10FA1ADDB9
:104A0000B7EE006A94ED057A27EE277AC6EE276A9C
:104A100084ED0D7AC4ED0C6A6DB1204640F8185F44
:104A200001F09EFB064903690020064A2162A2624A
:104A3000E36005B030BD012005B030BD48960424C8
:104A4000002000300000003000680830704700BFD0
:104A5000B1F5807F03680A4628BF4FF48072B1F534
:104A6000807F9A6094BF0020012070470068183052
:104A700001F0D6BB70B504688AB0A369E160CBB120
:104A800004F11805284601F06BFB8446EE46E66803
:104A9000BCE80F00AEE80F00BCE80F00AEE80F0066
:104AA0009CE803008EE8030069462846049601F05E
:104AB0005FFAF8B9E069D8B104F11C05284601F0A5
:104AC0004FFB8446EE46E468BCE80F00AEE80F00FA
:104AD000BCE80F00AEE80F009CE803008EE803007E
:104AE00069462846049401F043FA003818BF0120B3
:104AF0000AB070BD01200AB070BD00BF30B50468B7
:104B000083B00D46E3694BB1A3680020E26A616A95
:104B10009B00009004F11C0001F024FBA3680748EF
:104B2000A26A9B00216A009004F1180001F01AFBB0
:104B30000020C4E9005003B030BD00BF1D3E000896
:104B400010B4074B4FF07E5130240022032019612E
:104B50009C60D8605DF8044B5961C3E90622704738
:104B600048960424704700BFF8B5134F3C687F2C6B
:104B700007D98023114A42F224411C463B60A2F827
:104B80007E100F4D2B68012B0AD90C4E0D4D22467D
:104B90003146284600F074F90028F8D13860F8BD95
:104BA00022460649074800F06BF90028F7D12B6828
:104BB000386001332B60F8BD849604248896042461
:104BC000809604240897042430B4154C2168F1B170
:104BD0004B1E144DE81810F801298C4619460A2A74
:104BE00001D00D2A02D14BB1013BF4E70CF10203D5
:104BF0007F2B10D98023236030BC70470122022311
:104C000023600D200A236854AB5430BC7047012246
:104C10000223044DF4E70CF101026146F0E700BF06
:104C2000849604248896042410B5094C02460B4649
:104C3000084821680844C1F1800111F093FC236801
:104C400018442060FFF7C0FFFFF78EFF10BD00BFC4
:104C500084960424889604240FB400B583B004A974
:104C600051F8040B0191FFF7DFFF03B05DF804EB8F
:104C700004B0704710B5044600210A4800F07AF8E5
:104C8000002C094B14BF0222002208481A60FFF7CB
:104C9000E3FF0748FFF7E0FF0A20BDE8104001F0FE
:104CA00087BB00BF08970424809604246C77010812
:104CB0007C770108064A0749074808B50FF0A4FCAD
:104CC000034A04490548BDE808400FF09DBC00BFF9
:104CD00000000024654B0008089704240C97042466
:104CE00070B5044682B0C1F30726CDB2ADF804100A
:104CF00001F05CFB4FF480724FF001232060A01D97
:104D0000A571A280E671A36002B0BDE8704000F01A
:104D1000D3B800BF38B5044601F048FB0022236831
:104D20002271834210D00122A57AE37A9540206057
:104D30002271A01D6DB243B900F09AF940B2284328
:104D4000C0B27F28A0720AD038BD00F091F9B0FA45
:104D500080F040092843C0B27F28A072F4D101F04E
:104D600025FB07EE900AF8EE677AC4ED037A38BDAA
:104D7000704700BF012910B506D0022915D051B1E6
:104D8000BDE8104005F070BC0A463448344909F0CB
:104D900005FEE8B1FEE7334B0A46334C334934484D
:104DA0001C6009F0FBFD68B1FEE701222C492B488D
:104DB00009F0F4FD00B1FEE72E49284809F010FE85
:104DC000C0B1FEE72B492A4809F00AFE60B1FEE7B0
:104DD0002849224809F004FE00B1FEE726491F4891
:104DE00009F08CFD08B3FEE72449214809F086FD4F
:104DF000A8B1FEE72049194809F080FD00B1FEE79F
:104E0000164809F003FE024640B9164B164C1749E6
:104E100017481C6009F0C2FD68B1FEE7FEE71448C0
:104E200009F0F4FD0028ABD0FEE70C4809F0EEFDD8
:104E30000028A5D0FEE70F490D4809F0D1FD00B1CB
:104E4000FEE70E490A4809F059FD00B1FEE708489F
:104E500009F0DCFD002893D0FEE700BFAC990424E4
:104E6000BC000024489C0424714D0008A0000024CC
:104E700010970424240100248000002470000024E2
:104E8000084691B208B501F03BFD003818BF01207B
:104E900008BD00BF014804F0C5BE00BFF0C4042433
:104EA000014804F0BFBE00BFF0C40424014804F070
:104EB000B9BE00BFF0C404248378022B30B5044689
:104EC0008FB037D0032B33D0012B31D000230A937E
:104ED000E378012B2AD0022B28D000230B93002348
:104EE00020460C9302F0EEF80546204602F0F2F858
:104EF00023780990082B13D8DFE803F01F324558B8
:104F00006B7E91A40500594BD3F8E02042F48072E7
:104F1000C3F8E020D3F8E03003F480730893089BD3
:104F200009A9284603F096FA0FB030BD0B93D6E7D7
:104F30000A93CDE711230A93CAE74C4B09A92846E7
:104F4000D3F8E02042F00102C3F8E020D3F8E030CB
:104F500003F001030093009B03F07CFA0FB030BD17
:104F6000424B09A92846D3F8E02042F00202C3F8D8
:104F7000E020D3F8E03003F002030193019B03F03B
:104F800069FA0FB030BD394B09A92846D3F8E020A3
:104F900042F00402C3F8E020D3F8E03003F0040349
:104FA0000293029B03F056FA0FB030BD2F4B09A9B4
:104FB0002846D3F8E02042F00802C3F8E020D3F8F6
:104FC000E03003F008030393039B03F043FA0FB0B0
:104FD00030BD264B09A92846D3F8E02042F0100244
:104FE000C3F8E020D3F8E03003F010030493049BEF
:104FF00003F030FA0FB030BD1C4B09A92846D3F896
:10500000E02042F02002C3F8E020D3F8E03003F0C3
:1050100020030593059B03F01DFA0FB030BD134B21
:1050200009A92846D3F8E02042F04002C3F8E02066
:10503000D3F8E03003F040030693069B03F00AFA2E
:105040000FB030BD094B09A92846D3F8E02042F043
:105050008002C3F8E020D3F8E03003F08003079328
:10506000079B03F0F7F90FB030BD00BF00440258B2
:1050700038B5054602F026F80446284602F02AF81C
:1050800001462046BDE8384003F0ECBB70B506464B
:105090000D4602F017F80446304602F01BF82A1EAF
:1050A0000146204618BF0122BDE8704003F0E0BB76
:1050B0000023122270B586B0CDE902230493036861
:1050C000032B01D804230593061D841D304601F0EF
:1050D000F9FF0546304601F0FDFF034601A92846C9
:1050E000019303F0B7F9204601F0ECFF0346204698
:1050F0001C4601F0EFFF01A903462046019303F08F
:10510000A9F906B070BD00BF634A0368934210B5A9
:105110008CB028D0614A934258D0614A934200F043
:105120009480604A934201D00CB010BD5E4C5F4841
:10513000D4F8E03043F00203C4F8E030D4F8E030B3
:1051400003F002030A930A9BFFF7B2FFD4F8F4308E
:1051500043F08003C4F8F430D4F8F43003F0800353
:105160000B930B9BE0E7504C5148D4F8E03043F0F0
:105170000203C4F8E030D4F8E03003F002030193F6
:10518000019BFFF795FFD4F8E83000221F2043F47D
:1051900000131146C4F8E830D4F8E83003F40013E3
:1051A0000293029BD4F8D83043F00103C4F8D830FE
:1051B000D4F8D83003F001030393039B02F0CEF838
:1051C0001F200CB0BDE8104002F006B9364C39483B
:1051D000D4F8E03043F08003C4F8E030D4F8E03095
:1051E00003F080030493049BD4F8E03043F00203FF
:1051F000C4F8E030D4F8E03003F002030593059BD7
:10520000FFF756FFD4F8E8300022212043F4800352
:105210001146C4F8E830D4F8E83003F4800306936C
:10522000069BD4F8D83043F00103C4F8D830D4F842
:10523000D83003F001030793079B02F08FF8212079
:105240000CB0BDE8104002F0C7B81B48FFF730FFB4
:10525000154B00224820D3F8E840114644F40004DE
:10526000C3F8E840D3F8E84004F400040894089C2C
:10527000D3F8D84044F00104C3F8D840D3F8D8306C
:1052800003F001030993099B02F068F848200CB071
:10529000BDE8104002F0A0B80054004000580040A3
:1052A000005C0040001C005800440258D89E0424B2
:1052B000509C0424289D0424009E04242DE9F043DE
:1052C0001A4B87B000254FF010099E46EC46184B4C
:1052D000FF22E04667461A700EF118060EF1300400
:1052E000CDE90055CDE90255ADF80090BCE80F00BE
:1052F000CDE90455AEE80F009CE803000095ADF839
:1053000000908EE80300B8E80F000FC69CE8030089
:105310000095ADF8009086E803000FCF0FC49CE81D
:10532000030084E8030007B0BDE8F08320000024F8
:105330004D9C042410B5EFF3108472B6084B1A7814
:10534000120602D504B962B610BD1B78D8220548F2
:105350005BB202FB0300143002F02AFDF2E700BF4B
:105360004D9C0424509C0424014804F041BB00BF20
:10537000DC9C0424014804F03BBB00BFB49D042422
:10538000014804F035BB00BF8C9E04242DE9F04396
:105390000F68D8243F4D85B007FB04F4032F05EBBD
:1053A0000403036040DCCB680E46012B3CD84DD093
:1053B0004FF0D808B646DFF8FC9008FB0758BEE867
:1053C0000F00C446ACE80F00DEF800300DF1100EFF
:1053D000CCF80030D8F808C099E80F000EE90F00AB
:1053E0000EEB8703BCF1010F53F8103CC8F88C306A
:1053F00031D0BCF1020F42D0BCF1000F35D0317C6E
:105400008C34D823002201202C4403FB075349008D
:10541000C3E92602C3F894102046C3E92822C3E951
:105420002A2203F02FFF18B1012005B0BDE8F08358
:105430000146204604F0E8FA0028F5D1014620464E
:1054400004F00CFB003818BF0120EEE70B7C103B8A
:10545000672BADD9E8E701F017F90F4B98420CBF65
:105460000E4B0F4BC8F89030C9E701F00DF90A4B0D
:1054700098420CBF0B4B0C4BC8F89030BFE701F0C3
:1054800003F9054B98420CBF084B094BC8F8903004
:10549000B5E700BF509C0424000E27072D0FB03045
:1054A0003211D0205F4390608A62E030200BA01060
:1054B0001A098010F47601082DE9F041D0F8008037
:1054C00082B00D4617461E4608F18C04204604F0B3
:1054D00097FA2028FAD1D8F80C3073B96D0020461D
:1054E000089C33463A46A9B2009403F021FF0038E5
:1054F00018BF012002B0BDE8F081089B3246394652
:10550000204604F0BFF8F2E72DE9F041D0F8008022
:1055100082B00D4617461E4608F18C04204604F062
:105520006FFA2028FAD1D8F80C3073B96D002046F4
:10553000089C33463A46A9B2009403F0CDFF0038E8
:1055400018BF012002B0BDE8F081089B3246394601
:10555000204604F07BF9F2E7044B10221A7483F81A
:10556000E82083F8C02183F898227047509C0424D7
:1055700030B5002395B04FF48071062204460B939A
:1055800006921393CDE90C13CDE90E33CDE9113317
:1055900001F07CF807282BD004F1100541F2883285
:1055A00006A9284605F0ACF928B10123184684F86D
:1055B0005C3015B030BD0222022306A92846CDE991
:1055C000002310220123CDE9022300224FF480039F
:1055D000CDE9042305224FF0807306926A460F93AB
:1055E00041F2883305F0F8FA0028DED115B030BD5D
:1055F0000323012084F85C3015B030BD00000000AA
:1056000070B50023A4B04FF080724FF4807504464B
:10561000ADF806300D93CDE910320122CDE90E53DD
:10562000CDE91223CDE91433002943D0F02300F152
:10563000100508AEADF80630C02341F2883231467D
:105640002846089305F05CF928B10123184684F830
:105650005C3024B070BD41F288320DF1060128465D
:1056600005F0B8F903460028EFD105224FF4807108
:105670001E93284616924FF080721B9321931F921F
:1056800002AA9FED1F7BCDE91C13CDE922338DEDDE
:10569000027B9FED1D7B41F2883316A98DED047BC3
:1056A0009FED1B7B8DED067B05F096FA0028CCD193
:1056B00024B070BD00F1100508AE612341F28832BC
:1056C00031462846089305F01BF90028BDD141F268
:1056D00088320DF10601284605F0FAF90028B4D108
:1056E000BDF80630204623F0780343F04003ADF8C0
:1056F0000630FFF73DFF00289ED0A6E7AFF30080FD
:105700000000000001000000100000000100000087
:1057100000000000000040002DE9F04F00234FF48E
:10572000807501264FF0807804462DED028BABB0DA
:105730008DF8073013932193299314950E96CDF885
:105740005C80CDE91533CDE91863CDE91A33CDE995
:105750002253CDE92433CDE9273306231C9300F0EF
:1057600095FF072808D004F1100741F288321CA9E0
:10577000384605F0C5F840B10123184684F85C307E
:105780002BB0BDEC028BBDE8F08F4FF0020A4FF05A
:10579000020B4FF0050941F2883308AA1CA93846CC
:1057A000CDF89480CDF870909FED2D8BCDE908ABAE
:1057B0004FF0000A4FF4800B8DED0A8BCDE90CAB56
:1057C00005F00AFA0028D7D141F2883238460EA9EE
:1057D00005F096F80028CFD1402341F288320DF130
:1057E000070138468DF8073005F0F4F80028C3D1DA
:1057F00041F288330EA902AA3846CDF83890CDF888
:105800005C809FED197B8DED048BCDE906AB8DEDB2
:10581000027B05F0E1F903460028ADD1CDF8709088
:105820004FF00109CDF894804FF00008219308AAA9
:1058300029931CA938462295CDE92333CDE9273396
:1058400041F288338DED0A8BCDE90CABCDE90889A7
:1058500005F0C2F9002893D0304684F85C608FE7E9
:1058600010000000010000004000000040000000A7
:105870002DE9F043624CA3B00D46046000F006FF32
:10588000072800F0A980286823466968AA6807C32A
:105890001E46AB8926F8043B3046257B677B05F026
:1058A00011F8E0B9574B012D4FF00108E061236179
:1058B00014BF4FF480134FF40003C4E9058893FA32
:1058C000A3F3B3FA83F34FF48079013BC4F8249037
:1058D000C4E90B003046236204F088FF38B101228E
:1058E000134684F85C20184623B0BDE8F083662395
:1058F0000B90139041F2883206A90693CDE90C90E3
:10590000CDE90E00CDE91100304604F0F9FF002882
:10591000E5D1992341F2883206A93046069304F076
:10592000EFFF0028DBD105231C9019906A461493E1
:105930004FF08073219014A91D9341F288339FED9D
:105940002A7BCDE91A90CDE91F008DED007B9FEDFC
:10595000287B30468DED027B9FED277B8DED047B10
:1059600005F03AF90028BAD129462046FFF748FE4B
:105970000028B4D12046FFF7CFFE03460028AED161
:10598000002FB0D1189330460027002606AA14A98C
:10599000CDF86890CDE91F33EB2314934FF44063A7
:1059A0001B934FF4005317934FF440431C93A023D1
:1059B0001693062319934FF0805321934FF04073B1
:1059C000CDE906671D9305F07FF9034600288AD0CC
:1059D000434684F85C8086E701230322184684F856
:1059E0005C2023B0BDE8F08300000000010000004F
:1059F0001000000001000000000000000000400056
:105A0000B09F0424005000522DE9F04F8FB0414B5D
:105A10000024026800AF9A427C63C7E90944C7E9E1
:105A20000B4403D03C37BD46BDE8F08F3A4B40F6FF
:105A300009213A48EB46D3F8D42007F11C0607F1B8
:105A4000220A4FF0020942F480424FF00308C3F8E3
:105A5000D420D3F8D42002F48042BA60BA68D3F8D4
:105A6000E02042F04002C3F8E020D3F8E02002F04A
:105A70004002FA60FA68D3F8E02042F02002C3F84E
:105A8000E020D3F8E02002F020023A613A69D3F82E
:105A9000E02042F01002C3F8E020D3F8E02002F04A
:105AA00010027A617A69D3F8E02042F00202C3F86A
:105AB000E020D3F8E030F86103F002033984BB61E1
:105AC000174B7B60BB697B6853F8040F7B6001F068
:105AD000F9FA7B680546186801F0FCFA16F8013BF4
