:020000040800F2
:1000000000000220010A0008FD0900081558000838
:10001000FD090008FD090008FD09000800000000B6
:10002000000000000000000000000000FD090008C2
:10003000FD09000800000000FD09000899570008AC
:10004000FD090008FD090008FD090008FD09000878
:10005000FD090008FD090008FD090008FD09000868
:10006000FD090008FD090008FD090008A15300086A
:10007000AD530008AD420008B9530008C55300084D
:100080005510010881480008FD090008FD09000815
:10009000FD090008FD090008FD090008FD09000828
:1000A000FD090008FD090008FD090008FD09000818
:1000B000210401082D04010839040108B54800088D
:1000C000FD090008C1480008FD09000891FC00086E
:1000D0009DFC0008890E0108B90E0108ED0E01080B
:1000E000FD090008FD09000800000000FD090008E6
:1000F000FD090008FD090008FD090008FD090008C8
:10010000FD090008FD09000845040108A9FC0008D4
:10011000210F0108550F0108FD090008FD0900081D
:10012000FD090008FD090008CDFC000801FD0008DC
:1001300089100108FD090008FD090008FD090008F3
:1001400000000000000000000000000000000000AF
:10015000FD090008FD090008FD090008890F0108D4
:10016000CD480008FD090008A9570008CD57000830
:10017000FD090008F1570008FD090008FD09000805
:10018000FD090008FD090008BD0F0108ED0F010879
:10019000B5FC0008C1FC0008FD090008FD090008C5
:1001A000FD090008FD090008FD090008FD09000817
:1001B000C1500008FD090008FD090008FD090008FC
:1001C000FD090008FD090008A93D0008B53D00082B
:1001D000FD090008C13D0008FD090008FD090008EF
:1001E000FD090008FD090008FD090008FD090008D7
:1001F000FD090008FD090008FD090008FD090008C7
:10020000FD090008FD090008FD090008FD090008B6
:10021000FD090008FD090008FD090008FD090008A6
:10022000FD090008FD090008FD09000800000000A4
:10023000FD090008FD09000800000000FD09000894
:10024000FD090008FD090008FD090008FD09000876
:10025000FD090008FD090008FD090008FD09000866
:10026000FD090008FD090008FD090008FD09000856
:10027000FD090008FD090008211001080000000028
:10028000FD090008FD090008FD0900080000000044
:0802900000000000FD09000858
:1002A00010B5054C237833B9044B13B10448AFF3B0
:1002B00000800123237010BDC00600240000000050
:1002C000187B010808B5034B1BB103490348AFF382
:1002D000008008BD00000000C4060024187B01084F
:1002E00001F0FF01102A2BDB10F0070F08D010F8E7
:1002F000013B013A8B422DD010F0070F42B3F6D1EB
:10030000F0B441EA012141EA014122F007047FF003
:1003100000070023F0E80256083C85EA010586EA5A
:10032000010685FA47F5A3FA87F586FA47F6A5FA96
:1003300087F68EB9EED1F0BC01F0FF0102F00702A2
:1003400032B110F8013B013A83EA010313B1F8D14D
:100350000020704701387047002D06BF354603382E
:10036000073815F0010F07D1013015F4807F02BF67
:10037000013015F4C03F0130F0BC0138704700BFB8
:1003800081F0004102E000BF83F0004330B54FEA46
:1003900041044FEA430594EA050F08BF90EA020FB3
:1003A0001FBF54EA000C55EA020C7FEA645C7FEA46
:1003B000655C00F0E2804FEA5454D4EB5555B8BF69
:1003C0006D420CDD2C4480EA020281EA030382EADA
:1003D000000083EA010180EA020281EA0303362D6C
:1003E00088BF30BD11F0004F4FEA01314FF4801C3F
:1003F0004CEA113102D0404261EB410113F0004F51
:100400004FEA03334CEA133302D0524263EB430307
:1004100094EA050F00F0A780A4F10104D5F1200EA5
:100420000DDB02FA0EFC22FA05F2801841F1000100
:1004300003FA0EF2801843FA05F359410EE0A5F1D4
:1004400020050EF1200E012A03FA0EFC28BF4CF005
:10045000020C43FA05F3C01851EBE37101F00045BB
:1004600007D54FF0000EDCF1000C7EEB00006EEBC8
:100470000101B1F5801F1BD3B1F5001F0CD3490852
:100480005FEA30004FEA3C0C04F101044FEA4452A9
:1004900012F5800F80F09A80BCF1004F08BF5FEA30
:1004A000500C50F1000041EB045141EA050130BD10
:1004B0005FEA4C0C404141EB0101013C28BFB1F522
:1004C000801FE9D291F0000F04BF01460020B1FA6D
:1004D00081F308BF2033A3F10B03B3F120020CDA40
:1004E0000C3208DD02F1140CC2F10C0201FA0CF01E
:1004F00021FA02F10CE002F11402D8BFC2F1200C83
:1005000001FA02F120FA0CFCDCBF41EA0C01904038
:10051000E41AA2BF01EB0451294330BD6FEA040481
:100520001F3C1CDA0C340EDC04F11404C4F120026C
:1005300020FA04F001FA02F340EA030021FA04F37E
:1005400045EA030130BDC4F10C04C4F1200220FAD5
:1005500002F001FA04F340EA0300294630BD21FA13
:1005600004F0294630BD94F0000F83F4801306BFD9
:1005700081F480110134013D4EE77FEA645C18BFCD
:100580007FEA655C29D094EA050F08BF90EA020F64
:1005900005D054EA000C04BF1946104630BD91EA5C
:1005A000030F1EBF0021002030BD5FEA545C05D15F
:1005B0004000494128BF41F0004130BD14F580049E
:1005C0003CBF01F5801130BD01F0004545F0FE4112
:1005D00041F470014FF0000030BD7FEA645C1ABF47
:1005E000194610467FEA655C1CBF0B46024650EA7E
:1005F000013406BF52EA033591EA030F41F40021AA
:1006000030BD00BF90F0000F04BF0021704730B52F
:100610004FF4806404F132044FF000054FF0000104
:1006200050E700BF90F0000F04BF0021704730B5C5
:100630004FF4806404F1320410F0004548BF40429A
:100640004FF000013EE700BF42004FEAE2014FEAEF
:1006500031014FEA02701FBF12F07F4393F07F4FCA
:1006600081F06051704732F07F4208BF704793F0CD
:100670007F4F04BF41F40021704730B54FF46074E0
:1006800001F0004521F000411CE700BF50EA0102E3
:1006900008BF704730B54FF000050AE050EA01028C
:1006A00008BF704730B511F0004502D5404261EBFC
:1006B00041014FF4806404F132045FEA915C3FF43D
:1006C000D8AE4FF003025FEADC0C18BF03325FEADA
:1006D000DC0C18BF033202EBDC02C2F1200300FA8B
:1006E00003FC20FA02F001FA03FE40EA0E0021FAB0
:1006F00002F11444BDE600BF53B94AB9002908BF4E
:1007000000281CBF4FF0FF314FF0FF3000F074B9EC
:10071000ADF1080C6DE904CE00F006F8DDF804E058
:10072000DDE9022304B070472DE9F047089D044637
:100730008E46002B4DD18A42944669D9B2FA82F294
:1007400052B101FA02F3C2F1200120FA01F10CFAD0
:1007500002FC41EA030E94404FEA1C48210CBEFB08
:10076000F8F61FFA8CF708FB16E341EA034306FB91
:1007700007F199420AD91CEB030306F1FF3080F020
:100780001F81994240F21C81023E63445B1AA4B26D
:10079000B3FBF8F008FB103344EA034400FB07F70F
:1007A000A7420AD91CEB040400F1FF3380F00A8150
:1007B000A74240F207816444023840EA0640E41B45
:1007C00000261DB1D4400023C5E900433146BDE8F1
:1007D000F0878B4209D9002D00F0EF800026C5E993
:1007E000000130463146BDE8F087B3FA83F6002EAB
:1007F0004AD18B4202D3824200F2F980841A61EB23
:10080000030301209E46002DE0D0C5E9004EDDE740
:1008100002B9FFDEB2FA82F2002A40F09280A1EB28
:100820000C014FEA1C471FFA8CFE0126200CB1FB7D
:10083000F7F307FB131140EA01410EFB03F0884276
:1008400008D91CEB010103F1FF3802D2884200F203
:10085000CB804346091AA4B2B1FBF7F007FB101195
:1008600044EA01440EFB00FEA64508D91CEB040433
:1008700000F1FF3102D2A64500F2BB800846A4EB8E
:100880000E0440EA03409CE7C6F12007B34022FA79
:1008900007FC4CEA030C20FA07F401FA06F31C43A8
:1008A000F9404FEA1C4900FA06F3B1FBF9F8200CB5
:1008B0001FFA8CFE09FB181140EA014108FB0EF0FB
:1008C000884202FA06F20BD91CEB010108F1FF3A4B
:1008D00080F08880884240F28580A8F10208614457
:1008E000091AA4B2B1FBF9F009FB101144EA014165
:1008F00000FB0EFE8E4508D91CEB010100F1FF3410
:100900006CD28E456AD90238614440EA0840A0FBA7
:100910000294A1EB0E01A142C846A64656D353D07D
:100920005DB1B3EB080261EB0E0101FA07F722FAA1
:1009300006F3F1401F43C5E9007100263146BDE8CA
:10094000F087C2F12003D8400CFA02FC21FA03F32D
:10095000914001434FEA1C471FFA8CFEB3FBF7F0AE
:1009600007FB10360B0C43EA064300FB0EF69E42D3
:1009700004FA02F408D91CEB030300F1FF382FD26C
:100980009E422DD9023863449B1B89B2B3FBF7F614
:1009900007FB163341EA034106FB0EF38B4208D9ED
:1009A0001CEB010106F1FF3816D28B4214D9023E2E
:1009B0006144C91A46EA004638E72E46284605E74C
:1009C0000646E3E61846F8E64B45A9D2B9EB02081D
:1009D00064EB0C0E0138A3E74646EAE7204694E7AD
:1009E0004046D1E7D0467BE7023B614432E73046E0
:1009F00009E76444023842E7704700BFFEE700BFE2
:100A00000B480C4A904203D0121A0B4915F0ECF82F
:100A10000A480B4A904203D0121A002115F0F2F84E
:100A200005F04AF915F0ACF801F048F8FEE700BF10
:100A300000000024BC0600244C7B0108C0060024F2
:100A400004E30024704700BF704700BF704700BF39
:100A5000704700BF704700BF704700BF704700BFBE
:100A60002DE9F04FC94B8DB0C94C4FF000080893E9
:100A70000126A36040F20C635A22A246A3821023EF
:100A800022740DF1080E8DF82C3004F11C0CF34685
:100A9000CDF81C800A254FF05E094127C4E9008685
:100AA000BAE80F00DAF800A0AEE80F00CEF800A018
:100AB000BBE80F00ACE80F0007A98CF800A004F118
:100AC0001800CDE9096803F007FF94F8303007AA51
:100AD00094F82C10404518BF43F00103009504F131
:100AE00018008DF81C9084F8303033468DF81D8046
:100AF00003F088FF94F8303002AA94F82C10404597
:100B000018BF43F00103009504F1180084F8303059
:100B1000334603F09FFF94F8303007AA94F82C1066
:100B2000404518BF43F00103009504F1180084F814
:100B30003030022303F066FF94F8303007AA94F8AF
:100B40002C10404518BF43F00103009504F1180034
:100B500084F8303080238DF81C3063238DF81D30ED
:100B6000022303F04FFF94F8303007AA94F82C10BA
:100B7000404518BF43F00103009504F118008DF8BB
:100B80001C9084F830309DF808308DF81D30022319
:100B900003F038FF94F83030404518BF43F00103AC
:100BA000304684F8303004F0ADFE334607AA94F89E
:100BB0002C1004F1180000958DF81C908DF81D8004
:100BC00003F020FF94F83020334694F82C10404571
:100BD00018BF42F00102009504F1180084F830209B
:100BE00002AA03F037FF94F8303007AA94F82C10CB
:100BF000404518BF43F00103009504F118008DF83B
:100C00001C9084F8303002238DF81D8003F0FAFE2A
:100C100094F8303094F814A0404518BF43F0010315
:100C200094F8159084F830300A254FF000085E26BD
:100C3000012307AA94F82C10564800958DF81D80C2
:100C40008DF81C6003F0DEFE94F83010012302AA38
:100C50000095404518BF41F001014E4884F830101E
:100C600094F82C1003F0F6FE94F83010022307AA33
:100C7000404518BF41F001010095464884F8301006
:100C800094F82C1003F0BEFE94F83010022307AA4B
:100C9000404518BF41F0010100953E4884F83010EE
:100CA00094F82C108DF81C708DF81DA003F0AAFE8E
:100CB00094F830C002239DF80820404518BF4CF03E
:100CC000010C94F82C108DF81D2007AA31480095CE
:100CD00084F830C08DF81C6003F094FE94F8301056
:100CE000012307AA0095404518BF41F0010129489A
:100CF0008DF81D8084F8301094F82C108DF81C604D
:100D000003F080FE94F83010012302AA00954045BC
:100D100018BF41F001011F4884F8301094F82C10DE
:100D200003F098FE94F83010022307AA404518BF3C
:100D300041F001010095174884F8301094F82C1008
:100D400003F060FE94F830C07A1C0223404518BFBF
:100D50004CF0010C94F82C108DF81C2007AA0D48BB
:100D60000237009584F830C0FFB28DF81D9003F073
:100D700049FE94F830C002239DF80820404518BF72
:100D80004CF0010C94F82C1006E000BF010801099A
:100D9000746E00248C6E00248DF81D2007AAC048B4
:100DA00000958DF81C6084F830C003F02BFE94F899
:100DB0003030404518BF43F00103592F84F83030DC
:100DC0007FF432AF07AA94F82C1001230095B448A1
:100DD00001278DF81D808DF81C6003F013FE94F838
:100DE000303002AA94F82C10404518BF43F001039C
:100DF0000095AB4884F83030012303F02BFE94F8C3
:100E0000303007AA94F82C10404518BF43F0010376
:100E10000095A34884F83030022303F0F3FD94F8E2
:100E2000303007AA94F82C10404518BF43F0010356
:100E300000959B4884F830302B238DF81D708DF879
:100E40001C30022303F0DEFD94F8303007AA94F83A
:100E50002C10404518BF43F001030095904884F8DA
:100E600030309DF808308DF81C608DF81D3002235D
:100E700003F0C8FD94F8303007AA94F82C104045D0
:100E800018BF43F001030095854884F830303B4695
:100E90008DF81D808DF81C6003F0B4FD94F830309F
:100EA00002AA94F82C10404518BF43F001030095A6
:100EB0007B4884F830303B4603F0CCFD94F830306A
:100EC00007AA94F82C10404518BF43F00103009581
:100ED000734884F83030022303F094FD94F83030E6
:100EE00007AA94F82C10404518BF43F00103009561
:100EF0006B4884F830302C238DF81D708DF81C3031
:100F0000022303F07FFD94F8303007AA94F82C10E8
:100F1000404518BF43F001030095614884F8303024
:100F20009DF808308DF81C608DF81D30022303F009
:100F300069FD94F8303007AA94F82C10404518BF8A
:100F400043F001030095564884F830303B468DF855
:100F50001D808DF81C6003F055FD94F8303002AA16
:100F600094F82C10404518BF43F0010300954C48FD
:100F700084F830303B4603F06DFD94F8303007AA1A
:100F800094F82C10404518BF43F0010300954448E5
:100F900084F83030022303F035FD94F8303007AA8E
:100FA00094F82C10404518BF43F0010300953C48CD
:100FB00084F830302D238DF81C300E238DF81D3031
:100FC000022303F01FFD94F8303007AA94F82C1088
:100FD000404518BF43F001030095314884F8303094
:100FE0009DF808308DF81C608DF81D30022303F049
:100FF00009FD94F8303007AA94F82C10404518BF2A
:1010000043F001030095264884F830303B468DF8C4
:101010001D808DF81C6003F0F5FC94F8303002AAB6
:1010200094F82C10404518BF43F0010300951C486C
:1010300084F830303B4603F00DFD94F8303007AAB9
:1010400094F82C10404518BF43F001030095144854
:1010500084F83030022303F0D5FC94F8303007AA2E
:1010600094F82C10404518BF43F0010300950C483C
:1010700084F830302E238DF81D808DF81C3002232B
:1010800003F0C0FC94F8303007AA94F82C104045C7
:1010900018BF43F001030095014884F8303001E0A7
:1010A0008C6E00249DF808308DF81C608DF81D3082
:1010B000022303F0A7FC94F8303007AA94F82C1010
:1010C000404518BF43F001030095C24884F8303012
:1010D0003B468DF81D808DF81C6003F093FC94F85E
:1010E000303002AA94F82C10404518BF43F0010399
:1010F0000095B84884F830303B4603F0ABFC94F8D8
:10110000303007AA94F82C10404518BF43F0010373
:101110000095B04884F83030022303F073FC94F853
:10112000303007AA94F82C10404518BF43F0010353
:101130000095A84884F830302F238DF81D708DF865
:101140001C30022303F05EFC94F8303007AA94F8B8
:101150002C10404518BF43F0010300959D4884F8CA
:1011600030309DF808308DF81C608DF81D3002235A
:1011700003F048FC94F8303007AA94F82C1040454E
:1011800018BF43F001030095924884F830303B4685
:101190008DF81D808DF81C6003F034FC94F830301D
:1011A00002AA94F82C10404518BF43F001030095A3
:1011B000884884F830303B4603F04CFC94F83030DB
:1011C00007AA94F82C10404518BF43F0010300957E
:1011D000804884F83030022303F014FC94F8303057
:1011E00007AA94F82C10404518BF43F0010300955E
:1011F000784884F8303030238DF81C3005238DF882
:101200001D30022303F0FEFB94F8303007AA94F857
:101210002C10404518BF43F0010300956D4884F839
:1012200030309DF808308DF81C608DF81D30022399
:1012300003F0E8FB94F8303007AA94F82C104045EE
:1012400018BF43F001030095624884F830303B46F4
:101250008DF81D808DF81C6003F0D4FB94F83030BD
:1012600002AA94F82C10404518BF43F001030095E2
:10127000584884F830303B4603F0ECFB94F83030AB
:1012800007AA94F82C10404518BF43F001030095BD
:10129000504884F83030022303F0B4FB94F8303027
:1012A00007AA94F82C10404518BF43F0010300959D
:1012B000484884F8303031238DF81D708DF81C308B
:1012C000022303F09FFB94F8303007AA94F82C1007
:1012D000404518BF43F0010300953E4884F8303084
:1012E0009DF808308DF81C608DF81D30022303F046
:1012F00089FB94F8303007AA94F82C10404518BFA9
:1013000043F001030095334884F830303B468DF8B4
:101310001D808DF81C6003F075FB94F8303002AA34
:1013200094F82C10404518BF43F00103009529485C
:1013300084F830303B4603F08DFB94F8303007AA38
:1013400094F82C10404518BF43F001030095214844
:1013500084F83030022303F055FB94F8303007AAAC
:1013600094F82C10404518BF43F00103009519482C
:1013700084F8303032238DF81D808DF81C30022324
:1013800003F040FB94F8303007AA94F82C10404545
:1013900018BF43F0010300950E4884F830309DF8E3
:1013A00008308DF81C608DF81D30022303F02AFBF5
:1013B00094F8303007AA94F82C10404518BF43F039
:1013C00001030095034884F830303B468DF81D80BA
:1013D00002E000BF8C6E00248DF81C6003F012FB4D
:1013E00094F8303002AA94F82C10404518BF43F00E
:1013F00001030095C14884F830303B4603F02AFBD6
:1014000094F8303007AA94F82C10404518BF43F0E8
:1014100001030095B94884F83030022303F0F2FA52
:1014200094F8303007AA94F82C10404518BF43F0C8
:1014300001030095B14884F8303033238DF81D80C6
:101440008DF81C30022303F0DDFA94F8303007AA3F
:1014500094F82C10404518BF43F001030095A748AD
:1014600084F830309DF808308DF81C608DF81D3000
:10147000022303F0C7FA94F8303007AA94F82C102E
:10148000404518BF43F0010300959C4884F8303074
:101490003B468DF81D808DF81C6003F0B3FA94F87C
:1014A000303002AA94F82C10404518BF43F00103D5
:1014B0000095924884F830303B4603F0CBFA94F81C
:1014C000303007AA94F82C10404518BF43F00103B0
:1014D00000958A4884F83030022303F093FA94F898
:1014E000303007AA94F82C10404518BF43F0010390
:1014F0000095824884F8303034238DF81D808DF8B3
:101500001C30022303F07EFA94F8303007AA94F8D6
:101510002C10404518BF43F001030095774884F82C
:1015200030309DF808308DF81C608DF81D30022396
:1015300003F068FA94F8303007AA94F82C1040456C
:1015400018BF43F0010300956C4884F830303B46E7
:101550008DF81D808DF81C6003F054FA94F830303B
:1015600002AA94F82C10404518BF43F001030095DF
:10157000624884F830303B4603F06CFA94F830301F
:1015800007AA94F82C10404518BF43F001030095BA
:101590005A4884F83030022303F034FA94F830309B
:1015A00007AA94F82C10404518BF43F0010300959A
:1015B000524884F8303035238DF81D808DF81C306A
:1015C000022303F01FFA94F8303007AA94F82C1085
:1015D000404518BF43F001030095484884F8303077
:1015E0009DF808308DF81C608DF81D30022303F043
:1015F00009FA94F8303007AA94F82C10404518BF27
:1016000043F0010300953D4884F830303B468DF8A7
:101610001D808DF81C6003F0F5F994F8303002AAB3
:1016200094F82C10404518BF43F00103009533484F
:1016300084F830303B4603F00DFA94F8303007AAB6
:1016400094F82C10404518BF43F0010300952B4837
:1016500084F83030022303F0D5F994F8303007AA2B
:1016600094F82C10404518BF43F00103009523481F
:1016700084F830305B238DF81D808DF81C300223F8
:1016800003F0C0F994F8303007AA94F82C104045C4
:1016900018BF43F001030095184884F830309DF8D6
:1016A00008308DF81C608DF81D30022303F0AAF974
:1016B00094F8303007AA94F82C10404518BF43F036
:1016C000010300950D4884F830303B468DF81D80AD
:1016D0008DF81C6003F096F994F830203B4694F89E
:1016E0002C10404518BF42F001020095034884F8D1
:1016F000302002AA03F0AEF902E000BF8C6E002495
:1017000094F8303007AA94F82C10404518BF43F0E5
:1017100001030095674884F83030022303F072F922
:1017200094F8303007AA94F82C10404518BF43F0C5
:10173000010300955F4884F830305C238DF81C303D
:1017400010238DF81D30022303F05CF994F830303B
:1017500007AA94F82C10404518BF43F001030095E8
:10176000544884F830309DF808308DF81C608DF8AE
:101770001D30022303F046F994F8303007AA94F89C
:101780002C10404518BF43F001030095494884F8E8
:1017900030303B468DF81D808DF81C6003F032F927
:1017A00094F8303002AA94F82C10404518BF43F04A
:1017B000010300953F4884F830303B4603F04AF976
:1017C00094F8303007AA94F82C10404518BF43F025
:1017D00001030095374884F83030022303F012F9F2
:1017E00094F8303007AA94F82C10404518BF43F005
:1017F000010300952F4884F830305D238DF81C30AC
:1018000020238DF81D30022303F0FCF894F83030CB
:1018100007AA94F82C10404518BF43F00103009527
:10182000244884F830309DF808308DF81C608DF81D
:101830001D30022303F0E6F894F8303007AA94F83C
:101840002C10404518BF43F001030095194884F857
:1018500030303B468DF81D808DF81C6003F0D2F8C7
:1018600094F8303002AA94F82C10404518BF43F089
:10187000010300950F4884F830303B4603F0EAF846
:1018800094F830108C2307AA404518BF41F001019D
:1018900000958DF81D30022384F8301094F82C1038
:1018A00004488DF81C6003F0ADF884F830800DB06A
:1018B000BDE8F08F8C6E0024F0B5314D85B00A265E
:1018C000002401230DF10D02009605F1180095F892
:1018D0002C108DF80D4003F095F895F83020022378
:1018E0000096A04218BF42F0010295F82C1005F1B5
:1018F0001800244F85F830200DF10E0203F0AAF8ED
:1019000095F83030BDF80E20A04218BF43F0010317
:101910001D4EC2F30B0285F830303A8007E0338861
:101920002341DA071FD43A8801340C2C18D042FA2C
:1019300004F3D907F3D53388234113F00105F3D11C
:101940000121124800F094FE3A88114842FA04F34B
:1019500010490460DB070D70E1D501340C2CE6D191
:10196000328005B0F0BD0021084800F081FE6325FB
:1019700007480021074B3A8805601970D4E700BF7B
:10198000746E0024DC060024E4070024E006002432
:101990002C080024DE060024002008B502F0F4F82C
:1019A0000248BDE8084002F0E1B800BFC872010873
:1019B0003B4B3C4810B52DED068BDFED3B9AD3ED4C
:1019C00004AA93ED05AA93ED039A02F0CFF86AEE0C
:1019D000A97ADFED36AA3648B0EEE77AF4EEEA7A75
:1019E000FDEEC77AF1EE10FAF8EEE76A17EE902AEC
:1019F0004CBF2D21202137EE667A9FED278BB7EE65
:101A0000C77A27EE087BFDEEC77B17EE903A02F00F
:101A1000ADF86AEE297A2748B0EEE77AF4EEEA7A72
:101A2000FDEEC77AF1EE10FAF8EEE76A17EE902AAB
:101A30004CBF2D21202137EE667AB7EEC77A27EE0C
:101A4000087BFDEEC77B17EE903A02F08FF869EE47
:101A5000297A1948B0EEE77AF4EEEA7AFDEEC77A11
:101A6000F1EE10FAF8EEE76A17EE902A4CBF2D213E
:101A7000202137EE667AB7EEC77A27EE087BBDECF9
:101A8000068BFDEEC77BBDE8104017EE903A02F0E2
:101A90006DB800BFAFF300800000000000408F4031
:101AA000E8070024D87201080000C84200000000C6
:101AB000EC720108FC7201080C7301082DE9F04F6B
:101AC0000121BA4800244FF0020801250727062605
:101AD0002DED048BABB000F037FE2021B34800F0B1
:101AE000A5FD0321B14800F081FDB04800F09AFD4A
:101AF0008DF801408DF800800CA80099B0EE408A66
:101B000002F064F903238DF804400DF141008DF8D3
:101B10000530019902F05AF98DF808508DF80950F6
:101B20000DF15200029902F051F98DF80C408DF838
:101B30000D700DF16300039902F048F98DF8104023
:101B40008DF811601DA8049902F040F98DF8155028
:101B50008DF814800DF18500059902F037F9052301
:101B60008DF818400DF196008DF81930069902F0A5
:101B70002DF90CA93A4604238D4802F035F98C481A
:101B800002F016FB894800F04DFD8848F0EE408ACF
:101B900000F068FD07EE900AB8EEE79A04F03CF812
:101BA0009FED845A07EE900AB7EE007A824AC8EE9B
:101BB000895A824BDA601A615A6189EE286A1D706F
:101BC000F8EE677AC5EE256A67EE867A87EE276AB1
:101BD00036EE877AC6EE877A83ED016AC3ED067A20
:101BE000FFF7DAFEFEF73CFF754800F06FFC0F23AD
:101BF0008DF81C50B0EE480A8DF81D3007997148D9
:101C000001F0F8FF0E238DF82050B0EE480A8DF851
:101C100021306D48089901F0EDFF09238DF824600B
:101C2000B0EE480A8DF825300999684801F0E2FFC6
:101C3000674B684D03F2EC426749C3F8F4442E4603
:101C40001160A5F59C6403F59E624FF07D5313600F
:101C500020463434294600234FF48072B0EE480AFF
:101C600012F0AAFC5D4B5E4AB44205F5806544F86B
:101C7000283C44F82C3C44F8342CE9D1B0EE480A16
:101C8000584813F09DFAF0EE480A18219FED560AC5
:101C9000564812F0D1FDF7EE007A554CDFF880B1CE
:101CA000C7EE888A04F5107504F5C22704F59C690F
:101CB000AA4604F2E4484FF07C534E4900229FEDBF
:101CC0004E0A87ED0C8A204621610026E2613034FD
:101CD00044F82C3C44F8243C04ED078A44ED068A81
:101CE00004ED0A0A13F060FA012304F8306C284668
:101CF00004F8033C383504F8043C04ED040A97ED7D
:101D00000C0A12F0B1F83D4A3D4BB0EE480A45F8D6
:101D1000302C45F82C3C3B4812F01EFA3A4A3B4B1B
:101D20005445C9F80020C8F800300BF8016FC2D143
:101D300037491E48254EDFF8EC90DFF8EC80354D32
:101D4000354FDFF8E8B0DFF8E8A0344C00F04AFC8B
:101D50000FE038784FF07E5C012110BBCBF80030EB
:101D6000CAF800C039702170FFF722FE0A2003F084
:101D7000C9FD164801F058FFB37AFF2B13D0104964
:101D80000AA800F0E1FB0A9B632B04D00B9AC9F868
:101D90000030C8F80020FFF78FFD2B680022632B6E
:101DA000D7D12270E0E703F0AFFDE8E7E0060024BA
:101DB000F8060024DB0FC9400000C07FE8070024BC
:101DC0001C0700240C0800241C080024606E00245A
:101DD000306800241C0D00243333733F9A99593F17
:101DE000EC51383E30080024CDCCCC3C286D00248A
:101DF000000000C0DB0F49400000C8420AD7233C66
:101E0000CDCCCC3DE00400C06666663F00A08C46A9
:101E1000FD2000082C080024DE060024706E00243B
:101E2000231006C00408002408080024A86E00241B
:101E3000AC6E00242DE9F04106219B489B4C2DED12
:101E4000048B86B0B0EE408AF0EE608A02F0C6F9EC
:101E5000974B20609B7AFF2B00F0DB80954BFAEECE
:101E6000087A9FED957A9B7AFF2B07FE877A78EEAA
:101E7000287A9FED926AF2EE086A914EB0EE000A5F
:101E800077EE877A77EEC67AC7EEA60ACDED030A1B
:101E900013F0E6FA236848F6A042DFED8A7A93420F
:101EA000356820EE270A1CDC46F28F52934200F37D
:101EB000B380B3F57A7F25DD834A42F6F8211A44D0
:101EC0008A4221D8814812F05BFF07EE905A7F4882
:101ED000B8EEE70A06B0BDEC048BBDE8F04112F0A5
:101EE0004DBD4DF2D862934217DD794A42F6E0616A
:101EF0001A448A4208D8B0EE490A06B0BDEC048BF9
:101F0000BDE8F081002B13DAB0EE490A002323600C
:101F100006B0BDEC048BBDE8F0814AF6C77293426F
:101F2000F2DDB0EE490A06B0BDEC048BBDE8F081ED
:101F3000684EDDED030AD6ED007AF5EEC07AF1EEDB
:101F400010FA40F3AB80DFF89881634908F5C04789
:101F5000D7F8F4240132A1FB023107F2EC430C095B
:101F60001B6804EB4404A2EBC404342202FB048289
:101F7000C7F8F444936107F59E631B6853614FF003
:101F80007A53D360B0EE000A9FED4B8A13F068FAE3
:101F9000DFED4C7A3423514D20EE270A03FB0483F6
:101FA000002483ED040ADFED446AB7EE006A96ED83
:101FB000007AF0EE667AB4EEE67AF1EE10FA04DD1D
:101FC000D7F8F4349C4246FE267A0134284605A907
:101FD000CDED057A12F05EFB182C38EE008A05F183
:101FE0003405E0D1D6ED007A0023B0EE480A3C4833
:101FF000F5EEC07AF1EE10FAC8BF336013F0E8F8DE
:10200000B0EE409AB0EE490A06B0BDEC048BBDE8D4
:10201000F081B2EE087A2AE7324C05EB450504EB75
:102020000515284685ED020A13F0BEF8336885EDE4
:10203000080A0B2B0CD82C49E2182C4809781154AB
:1020400031B1C3EBC303012204EBC30383F8742251
:10205000274D0023A5F510742E46049328463835E5
:1020600011F01AFF2046B0EE408A12F0BBFEDDED03
:10207000047A3034E8EE007AA642CDED047AEDD150
:1020800005AB04AA1B481146009312F025F9F5EEA2
:10209000007A9DED059A29EE279A2CE7164FD7F87E
:1020A000F444A7F5C0486DE7F8060024B06E00249C
:1020B0000C0800241C0800240000000000008A42D4
:1020C000A86E00240000DC4350C9FFFF286D0024E7
:1020D000701DFFFFAC6E0024ABAAAAAA3C08002426
:1020E00030080024000000C0706E00242410060098
:1020F000400200C0E00400C030680024F8B52DEDB7
:102100000A8B0F46154603F0F7FB884A884BB7EE5B
:10211000008A1268874903EB8203874A874E93ED52
:10212000009A874B1268B8EEC99A1B689FED85BA72
:1021300003EB4303B0608448F0EE4BCA02EB830329
:102140009FED82AADFED828A01EB8303D3ED009A33
:1021500001F06AFD7F4801F067FD00217E48F8EE3E
:10216000E99A02F047F800217B48E0EE0ACA02F043
:1021700041F80121784830EE28CA02F03BF80221EC
:10218000754870EE28BA8CFE28CA02F033F870EE5B
:1021900028AACBFEA8BACAFEA8AADFED708A04213D
:1021A0006D4802F027F8B0EE687ADFED6D7A052110
:1021B0006948A0EE277AF0EE007A87FE287AC7FEFB
:1021C000678A02F017F8F0EE4B7ACCFE8BCA022138
:1021D0006148E0EE0A7AC7FE8B7A9FED62BACCFEC8
:1021E000C8CA8CFE48CACBFEC8BACAFEC8AA87FEB7
:1021F000C88A01F0FFFFF0EE4B7A9FED5B7A032176
:102200005548E0EE077A9FED597AC7FE8B7A87FE34
:10221000C7BA01F0EFFFDFED560AC0EE200AB2EEBA
:10222000040A13F01DF9B0EE40AADFED527AB0EEC9
:102230004C0A514B51482AEE27AA9FED517A8AFE4B
:1022400027AAC3ED00CA8AFE47AA12F0AFFDB0EE7E
:102250006B0A4A4812F0B8FD4848B0EE6A0A12F01C
:1022600097FD484B03F528721846C0ED928A383026
:102270009042FAD183ED938A38339342FAD1424B9C
:1022800083ED00AA03ED01BA9DB10024F0EE690AC6
:10229000B0EE490AFFF7CEFDD7E9000300EB84005A
:1022A00003EB8403013480ED000AA54283ED000AAC
:1022B000ECD103F021FBB26896ED017A821A3378F3
:1022C00007EE902AF8EE677A67EE877A53B100231B
:1022D000C6ED057AC6ED037AC6ED047A3370BDEC1F
:1022E0000A8BF8BD96ED047AD6ED066AF4EEC77A4D
:1022F00096ED037A96ED056AF1EE10FAF4EEC77AE0
:10230000B7EE007AC8BFC6ED047AF1EE10FA37EEE8
:10231000667ABDEC0A8B27EE067A48BFC6ED037AD3
:10232000A7EEA67A86ED057AF8BD00BF0408002462
:102330009400002404000024A86E0024E807002470
:1023400008080024CDCCCC3D0C0800246666663F0E
:10235000000000001C080024F80600240AD7233CD3
:1023600052B8FE3F9A99993ED7A3303FA4707D3F63
:10237000E731483F00007A44206D0024286D002496
:1023800000709446000000C0E40400C0F8B53B486B
:102390005A233B4D002401213A4A0361C36240F2B3
:1023A0000C6301624361826042622A46364E374FB7
:1023B000C0E90041C0E90644354912F019FF35482B
:1023C0002A463549046044610462344C12F010FF1F
:1023D000B18940F60313224606F1100CA4F80B1045
:1023E00042F8023B3346B17B617303CB1B78C4F8E0
:1023F000020051601372BCE80F00C4F80E00C4F86C
:102400001210C4F81A30C4F816206C22BCE803007D
:10241000BCF80030C4F81E0004F12C00E3849CF8E2
:102420000230C4F8221006F12C0184F8283013F091
:10243000DBFB2A4639461A4812F0DAFE2A463946AC
:10244000184812F0D5FE2A463946174812F0D0FE39
:102450002A461649164812F0CBFE2A461549164858
:1024600012F0C6FE2A461549154812F0C1FE2A464A
:1024700014491548BDE8F84012F0BABE746E002445
:102480000000002401080109FC710108450A000848
:102490005D0A0008E00600244D0A00081C0700241D
:1024A0000C0800241C080024606E0024550A000853
:1024B00030080024510A0008286D0024590A000839
:1024C000000000C0490A0008B46E00242DE9F04164
:1024D00003780646E3B100F10B0800F1BC040025C7
:1024E00005F12E0718F8010B00F066F802230146EB
:1024F000002206EB8707204601350434B98004F832
:10250000013C04F8022C01F07DFF3378AB42E7DC9C
:102510007378BBB1771C06F19804002517F8010FFA
:1025200005F1260800F048F80223012226F82800C9
:10253000E3702046A270013501F064FF7378043423
:10254000AB42EBDCBDE8F0812DE9F84F4B788346D8
:1025500053B34FF063090E4601F198080027CA46AD
:102560000121404602F038F8337873B106F1BC051A
:1025700000242846043502F021F8012801D1A146A3
:10258000BA4601343378A342F3DC4046002102F01E
:1025900023F80137737808F10408BB42E0DC5846A1
:1025A000CBE900A9BDE8F88F4FF063095846CA4649
:1025B000CBE900A9BDE8F88F202882B009D8084BE4
:1025C00003EB400213F81030507843EA002002B0C9
:1025D000704701230C2043EA002002B0704700BF7F
:1025E0001C730108143001F013BA00BF38B500F1B4
:1025F000140504462DED028B284601F0C5F9284646
:1026000001F0BEF92846B0EE408A01F0A7F9D0EDFE
:10261000007AF8EE677A88EE277ABDEC028B84EDBB
:102620000E7A38BD143001F0ABB900BF38B500F1F7
:10263000140504462DED028B284601F093F9284637
:1026400001F09EF92846B0EE408A01F087F9D0EDFE
:10265000007AF8EE677A88EE277ABDEC028B84ED7B
:102660000E7A38BD08B5143001F078F9006808BD5D
:10267000253001F0B1BF00BFF0B5032399B00027AA
:102680000125129306462C4B09A81595CDE90E732A
:1026900040F20453ADF84030284BCDE9135709936D
:1026A00001F0B0FE09A801F089FF002836D1244BC3
:1026B00004AF04460090CDF842301023394604950B
:1026C0008DF820301F4BCDE91650CDE906506846F5
:1026D000059302F001F90823009A01A909A8ADF8B1
:1026E00004508DF8064009940295039300F0E4F835
:1026F00000230EA938463024049302F0DDFE0322A5
:102700004FF07E5309A906F114000B930C93CDE909
:102710000942049A01F0EAF819B0F0BD40F601321E
:10272000074B169704AFADF824200998CDF8423036
:10273000179500F081F8DBE70402040403030001AD
:10274000040604030704010B2DE9F04304462DEDB4
:10275000028B83B0002948D0012140F201120023EE
:102760000091ADF804208DF80630304A0126304B38
:10277000271D304904F12908626040F20272A3600B
:1027800040F60663E16004F125092682A4F82520BD
:1027900084F82760A4F8293084F82B6003F042FA0B
:1027A0006946054648B304F130008DF8066003F031
:1027B00091F9072D34D104F114052046FFF75CFF91
:1027C000284601F0DDF82846B0EE408A01F0C6F850
:1027D000D0ED007AF8EE677A88EE277A84ED0E7AEB
:1027E00003B0BDEC028BBDE8F08340F20113009111
:1027F0008DF80610ADF80430B7E704F1300003F0AF
:1028000069F93946204602F0D7FA484601F0FAFD48
:10281000404601F0F7FD04F1120000F077F9CAE735
:102820003946204602F0C8FAC5E700BF0508050989
:1028300005070506050A060610B584B003460124FF
:10284000ADF8040003A8ADF80C30ADF80E4001F06F
:10285000D9FD214603A801F0BFFE204603F052F83F
:10286000002103A801F0B8FE204603F04BF82146F2
:1028700003A801F0B1FE04B010BD00BF10B5C2F353
:10288000002384B00C46017C8DF80D2043EA4402FD
:10289000FA2402238DF80C2003AA009402F0B2F867
:1028A00018B10124204604B010BD04460A2003F0EC
:1028B00029F8204604B010BD034670B543F8042B38
:1028C000044684B007C983E80700A37983B91A21B5
:1028D0000B461E22FA2523742046ADF80C20022355
:1028E00003AA009502F08EF828B1012004B070BD53
:1028F0001B210B46EDE70A2003F004F84FF4B85211
:1029000000950223ADF80C20204603AA217C02F09A
:1029100079F80028E9D10A2002F0F4FF41F20272AE
:1029200000950223ADF80C20204603AA217C02F07A
:1029300069F80028D9D10A2002F0E4FF04220095AA
:102940000223ADF80C20204603AA217C02F05AF89D
:102950000028CAD10A2002F0D5FF062200950223E2
:10296000ADF80C20204603AA217C02F04BF8002889
:10297000BBD10A2002F0C6FF41F2082200950223D3
:10298000ADF80C20204603AA217C02F03BF8002879
:10299000ABD10A20064602F0B5FF0095022303AA38
:1029A000217C2046ADF80C6002F02CF800289CD168
:1029B000304602F0A7FF009522790C232046002A1A
:1029C0008DF80C3003AA4FF0020314BF622142219C
:1029D0008DF80D10217C02F015F8002885D13046C5
:1029E00002F090FF2279D4E902310B43DBB20AB93D
:1029F00043F0400362790AB143F020030E22FA2526
:102A00008DF80D302046009502238DF80C2003AA86
:102A1000217C01F0F7FF00287FF467AF0A2002F065
:102A200071FF102200950223ADF80C20204603AA66
:102A3000217C01F0E7FF00287FF457AF0A2002F065
:102A400061FF122100950223ADF80C1003AA217C2E
:102A5000204601F0D7FF00287FF447AF0A2002F09C
:102A600051FF012209212046FFF708FF003818BF57
:102A700001203BE7F0B5102387B0234C012200254D
:102A80000126002702A920460195CDE902234FF433
:102A90008052CDE904670AF08FFD642003F000FF47
:102AA00002A94FF480522046CDE904670226102780
:102AB000CDE902670AF080FD0322102302A9204617
:102AC000CDE9022300230422CDE904234FF48052F0
:102AD0000AF072FD40F23223042202A9019310236E
:102AE0002046CDE90223019A012305924FF480523A
:102AF00004930AF061FD40F6060120460AF07CFDD1
:102B0000284607B0F0BD00BF248100241C4B0022E2
:102B10001C494FF0400C30B5054689B00220596081
:102B200007219A601A620124DA620A224FF4006EC9
:102B3000DC6006922022CDE9000104200821CDE9C5
:102B4000020103201021CDE9040108206946C3E9F0
:102B500004024FF4C072181DC3E906C24FF480523C
:102B6000C3E909E20AF0FEFC38B92846FFF782FF04
:102B7000003818BF012009B030BD204609B030BD73
:102B80002081002440410052614A0021D0B51368E1
:102B90008EB00A91002B40F0B9805E4B01214FF6B8
:102BA00083700C2411600221D3F8D420002603275F
:102BB00042F48052C3F8D420D3F8D42002F48052D7
:102BC0000092009AD3F8E02042F01002C3F8E0200F
:102BD000D3F8E02002F010020192019AD3F8E0202D
:102BE00042F04002C3F8E020D3F8E02002F04002B7
:102BF0000292029AD3F8E02042F00802C3F8E020E3
:102C0000D3F8E02002F008020392039AD3F8E02000
:102C100042F48072C3F8E020D3F8E02002F480721E
:102C20000492049AD3F8E02042F08002C3F8E02036
:102C3000D3F8E02002F080020592059AD3F8E02054
:102C400042F02002C3F8E020D3F8E02002F0200296
:102C50000692069AD3F8E02042F00402C3F8E0207E
:102C6000D3F8E0300C9403F0040307930323079A8E
:102C70000B93CDE9080108A9274805F0A9FC48F203
:102C80003712022308A925480C94CDE90823CDE981
:102C90000A6705F09DFC4CF20372022308A9204844
:102CA0000C94CDE90823CDE90A6705F091FC40F2C8
:102CB000FF62022308A91B480C94CDE90823CDE943
:102CC0000A6705F085FC4FF60C72022308A9164826
:102CD0000C94CDE90823CDE90A6705F079FC4FF69D
:102CE0003F02022308A911480C94CDE90823CDE93D
:102CF0000A6705F06DFC2022022308A90A480C94FB
:102D0000CDE90A67CDE9082305F062FC0EB0D0BD1D
:102D10001C81002400440258001002580018025878
:102D2000000C025800200258001C025800140258DF
:102D30002DE9F04FDFF8108406460D46144608F1E1
:102D400018002DED028B89B000AF02F0ADFCD8F871
:102D5000183073B3D8F81C30D8F80490002B4369AE
:102D60000BBF4FF0080A4FF0100A4FF0020B4FF064
:102D7000040BB9F1000F2AD0A200EA46012B02F1A0
:102D8000070222F00702ADEB020D6846ADEB020D23
:102D9000694600F03F81022B00F0D680002B6FD0F7
:102DA0002246C847D5462437BD46BDEC028BBDE858
:102DB000F08FD8F81C30002BF5D0D8F804904FF0E5
:102DC000080A4FF0020B4369B9F1000FD4D1FB613F
:102DD000D8F80030BB61002BE5D0D54802F0D6FC16
:102DE0006B46BBF1020F786108EE103AFB6900F008
:102DF00083816A465146A2EBC40295466200EA46C8
:102E0000B2FBFBF2AAEBC40085460AEB8200EE4659
:102E1000F861ADEB010DF8690EEB820CC7F810C03C
:102E2000EC46ADEB010D00EB8201CCF80400CCF8D0
:102E3000081001EB82013869E946CCF80C1000EB70
:102E40008201CCF800A001EB8202C9E900E0C9E9E7
:102E50000212012B00F06483022B00F06C82002B25
:102E600000F08081620849466046BB69984718EEC9
:102E7000103A24379D46BD46BDEC028BBDE8F08F6D
:102E8000002C8DD01A46D8ED0C6A9FEDB27A84469C
:102E9000331D36F922E00CF1080C07EE90EA33F905
:102EA00022E00232F8EEE77A944267EE877A67EE24
:102EB000A67A4CED027A07EE90EAF8EEE77A67EE32
:102EC000877A67EEA67A4CED017AE2D8F96122465C
:102ED000C847984ED8ED0D6A0020F9692B1D9FED6B
:102EE0009E7A9FED9E6ADFED9E5A22E0F4EEC67A4E
:102EF000F1EE10FAC0F2C88447F6FE72D1ED017A05
:102F000045F8202066EEA77AF4EEC77AF1EE10FAC3
:102F100040F2F080F4EEC67AF1EE10FAC0F2D584F9
:102F200047F6FE7243F820200230083184427FF6D3
:102F300039AFD1ED007A66EEA77AF4EEC77AF1EEFA
:102F400010FAD3D83246D9E7002C3FF429AFD8ED98
:102F50000C6A84469FED787A0022331D8E4656F81F
:102F600022100CF1080C07EE901A53F822100232CE
:102F7000F8EEE77A944267EE877A67EEA67A4CED30
:102F8000027A07EE901AF8EEE77A67EE877A67EE34
:102F9000A67A4CED017AE2D871462246C7F81CE0C9
:102FA000C847664ED8ED0D6A0020F9692B1D9FEDCC
:102FB0006A7A9FED6A6ADFF894C120E0F4EEC67A7F
:102FC000F1EE10FAC0F279843246D1ED017A45F87B
:102FD000202066EEA77AF4EEC77AF1EE10FA40F2FE
:102FE0008780F4EEC67AF1EE10FAC0F25E843246C3
:102FF00043F820200230083184427FF6D3AED1ED71
:10300000007A66EEA77AF4EEC77AF1EE10FAD5D818
:103010006246DAE7002C3FF4C3AED8ED0C6A864670
:103020009FED477A4FF0000C331D56F82C200EF11F
:10303000080E82F40002A2F5000207EE902A53F86F
:103040002C200CF1020CF8EEE77A82F400026445C1
:10305000A2F5000267EE877A67EEA67A4EED027A55
:1030600007EE902AF8EEE77A67EE877A67EEA67A9F
:103070004EED017AD9D8F9612246C847314ED8EDD4
:103080000D6A0020F9692B1D9FED337A9FED336A9D
:10309000DFF8BCC01FE0F4EEC67AF1EE10FAC0F221
:1030A000FC833246D1ED017A45F8202066EEA77AFE
:1030B000F4EEC77AF1EE10FA18D9F4EEC67AF1EE12
:1030C00010FAC0F2DA83324643F820200230083189
:1030D00084427FF667AED1ED007A66EEA77AF4EE11
:1030E000C77AF1EE10FAD6D86246DBE76246EBE724
:1030F00062467DE7324615E7A100D64662080731F1
:1031000021F00701ADEB010DEA46ADEB010D69467B
:10311000ADEB0E0D0AEB8200EC46ADEB0E0D01EBB4
:103120008202F861E946CCE900A0C9E9001290E604
:10313000748100240280FFFF000000300082FF7FC6
:103140000000003482FF7F0058810024007E008050
:103150007E0080FF0000003804FF7FBF04FF7F3F38
:1031600000FEFF46002C00F0C982BBF1020FD8F828
:10317000242000F0FA827969C7F8049002EB810EEE
:103180005FED0C5A8A00DCF808100EF104007A6139
:103190001A46DCF80C303B61331DD7F810903D61C6
:1031A000FD69C7E902CB8C46834636F92210D8ED7B
:1031B0000C7A06EE101A33F9221006EE901A3EF938
:1031C0002210B8EEC66A07EE101AF8EEE66A3BF96E
:1031D0002210B8EEC77A26EE256A66EEA56A27EEBB
:1031E000257A26EE276A66EEA76A27EE277A07EE8B
:1031F000901A51080232F8EEE77A0AEB8100944205
:1032000080ED006A05EB810067EEA57AC0ED006AEB
:103210000CEB810009EB810180ED007A98ED0C7ACE
:1032200067EE877AC1ED007ABFD8D7F804903D6980
:10323000D7E902CB60466208BB6949469847D8F88F
:103240002C307A69D8ED0D6A1A441FED3D7A1FEDD6
:103250003D6A2B1D904602F1040A5FED3F5A0022A1
:10326000A84ED9E900EC51E0F4EEC67AF1EE10FA7E
:10327000C0F2C78247F6FE7045F822000CEB010051
:10328000D0ED007A66EEA77AF4EEC77AF1EE10FA86
:103290004BD9F4EEC67AF1EE10FAC0F2BA8247F6D4
:1032A000FE70BBF1020F43F822002BD0D9F80800C2
:1032B0000844D0ED007A66EEA77AF4EEC77AF1EE14
:1032C00010FA36D9F4EEC67AF1EE10FAC0F2CD82D9
:1032D00047F6FE7048F82200D9F80C000144D1ED01
:1032E000007A66EEA77AF4EEC77AF1EE10FA1ED9EC
:1032F000F4EEC67AF1EE10FAC0F2AF8247F6FE7134
:103300004AF82210023294427FF6B1AD51080EEB1A
:1033100081008900D0ED007A66EEA77AF4EEC77AD4
:10332000F1EE10FAA0D83046A6E73046B9E73146AC
:10333000E6E73046CEE7002C00F0E081BBF1020F5B
:10334000D8F8243000F0E1817A69DCF8081003EB4A
:10335000820EC7F804909300DFED6B5A0EF1040063
:1033600000227B61DCF80C303B61331DD7F81090F4
:103370003D61FD69C7E902CB8C46834656F82210B1
:10338000D8ED0C7A07EE101A53F82210B8EEC76A7F
:1033900007EE101A5EF82210F8EEC76A07EE101A50
:1033A00026EE256A5BF82210B8EEC77A66EEA56AAB
:1033B00026EE276A27EE257A66EEA76A27EE277A99
:1033C00007EE901A51080232F8EEE77A0AEB810014
:1033D000944280ED006A05EB810067EEA57AC0EDAE
:1033E000006A0CEB810009EB810180ED007A98ED19
:1033F0000C7A67EE877AC1ED007ABFD8D7F80490CF
:103400003D69D7E902CB60466208BB6949469847E7
:10341000D8F82C307A69D8ED0D6A1A449FED3E7ABF
:103420009FED3E6A131D9246DFF8E4C00022FB6167
:103430002B1D364ED9E9008E4EE0F4EEC67AF1EE41
:1034400010FAC0F2FC81304645F822000EEB010074
:10345000D0ED007A66EEA77AF4EEC77AF1EE10FAB4
:1034600049D9F4EEC67AF1EE10FAC0F2EF81304697
:10347000BBF1020F43F822002AD0D9F80800084413
:10348000D0ED007A66EEA77AF4EEC77AF1EE10FA84
:1034900035D9F4EEC67AF1EE10FAC0F2C9813046A1
:1034A0004AF82200D9F80C000144D1ED007A66EE0A
:1034B000A77AF4EEC77AF1EE10FA1ED9F4EEC67AC6
:1034C000F1EE10FAC0F2AD813146F86940F82210F1
:1034D000023294427FF6CBAC510808EB81008900A0
:1034E000D0ED007A66EEA77AF4EEC77AF1EE10FA24
:1034F000A3D86046A8E76046BAE76146E5E76046BC
:10350000CEE700BF0280FFFF000000300082FF7F97
:10351000007E00800000003404FF7FBF04FF7F3F77
:10352000002C00F0EB807A690021D8F82430C7F82D
:10353000109003EB820ED7F81C909300FD610EF102
:1035400004021FED0C6A7B61331D154656F82120DD
:103550004808D8ED0C6ABBF1020F82F40002A2F514
:10356000000207EE902A53F8212082F40002B8EE00
:10357000E77AA2F5000227EE067A07EE902A0AEB18
:103580008002F8EEE77A27EE267A67EE867A82EDF9
:10359000007A09EB80024FEA800067EEA67AC2ED5E
:1035A000007A27D05EF8212082F40002A2F5000202
:1035B00007EE902A55F8212082F40002B8EEE77A4F
:1035C000A2F5000227EE067A07EE902ADCF8082022
:1035D000F8EEE77A024427EE267A67EE867A82EDE5
:1035E000007A98ED0C7ADCF80C2067EE877A0244BA
:1035F000C2ED007A02318C42A8D8D7F8109060460C
:103600006208BB694946FD699847D8F82C307A6949
:10361000D8ED0D6A1A441FED407A1FED406A131D64
:103620009246DFF8C4C20022FB612B1DAB4ED9E9E4
:10363000008E4EE0F4EEC67AF1EE10FAC0F2C580CC
:10364000304645F822000EEB0100D0ED007A66EE20
:10365000A77AF4EEC77AF1EE10FA49D9F4EEC67AF9
:10366000F1EE10FAC0F2BF803046BBF1020F43F812
:1036700022002AD0D9F808000844D0ED007A66EE7E
:10368000A77AF4EEC77AF1EE10FA35D9F4EEC67ADD
:10369000F1EE10FAC0F2AE8030464AF82200D9F8B6
:1036A0000C000144D1ED007A66EEA77AF4EEC77AF9
:1036B000F1EE10FA1ED9F4EEC67AF1EE10FAC0F26D
:1036C0008B803146F86940F82210023294427FF62E
:1036D000CEAB510808EB81008900D0ED007A66EE90
:1036E000A77AF4EEC77AF1EE10FAA3D86046A8E7FD
:1036F0006046BAE76146E5E76046CEE722464946BE
:103700006046BB699847FFF7B2BBC7F810B000220C
:1037100098ED0C6A331DDFED726AD7F81CB078693A
:1037200056F8221007EE901A53F82210B8EEE77AF6
:1037300007EE901A51080232F8EEE77A27EE267A61
:103740000AEB810E94420BEB810167EEA67A27EE1D
:10375000067A67EE867A8EED007AC1ED007ADFD8C0
:103760008300D7F810B07B614DE61A46C7F810B059
:1037700098ED0C6A331DDFED5B6AD7F81CB07869F1
:1037800036F9221007EE101A33F9221007EE901ABC
:10379000B8EEC77A51080232F8EEE77A27EE267AB9
:1037A0000AEB810E94420BEB810167EEA67A27EEBD
:1037B000067A67EE867A8EED007AC1ED007ADFD860
:1037C0008300D7F810B07B6134E5F0EE675AFEEE67
:1037D000E45A15EE900A34E7F0EE675AFEEEE45A2A
:1037E00015EE901A6EE7F0EE675AFEEEE45A15EE0B
:1037F000900A3AE7F0EE675AFEEEE45A15EE900AA8
:103800004BE767EEA57AFDEEE77A17EE900A00B275
:1038100032E567EEA57AFDEEE77A17EE900A00B280
:103820003FE5F0EE675AFEEEE05A15EE901A4CE6D0
:10383000F0EE675AFEEEE05A15EE900A30E6F0EE32
:10384000675AFEEEE05A15EE900AFDE5F0EE675A73
:10385000FEEEE05A15EE900A0AE667EEA57AFDEE56
:10386000E77A17EE901A09B24AE567EEA57AFDEEFF
:10387000E77A17EE900A00B22CE5F0EE675AFEEEFA
:10388000E45A15EE902A1FE467EEA57AFDEEE77A7A
:1038900017EE902A12B2FFF731BBF0EE675AFEEE38
:1038A000E45A15EE902AFFF7FDBBF0EE675AFEEEE4
:1038B000E05A15EE902AFFF79BBBF0EE675AFEEE3A
:1038C000E05A15EE902AFFF780BB67EEA57AFDEE71
:1038D000E77A17EE902A12B2FFF724BB82FF7F002F
:1038E00000000030000000387E0080FF30B5184C2A
:1038F000154685B0046004F1080EEC460FC98EE849
:103900000F00D4ED047AF5EEC07A8CE80F00F1EEEA
:1039100010FA1ADDB7EE006A94ED057A27EE277AE1
:10392000C6EE276A84ED0D7AC4ED0C6A6DB12046AF
:1039300040F8185F01F0B8FE064903690020064A06
:103940002162A262E36005B030BD012005B030BD48
:10395000588100240020003000000030006808304A
:10396000704700BFB1F5807F03680A4628BF4FF457
:103970008072B1F5807F9A6094BF0020012070476B
:103980000068183001F0F0BE70B504688AB0A36911
:10399000E160CBB104F11805284601F085FE8446AC
:1039A000EE46E668BCE80F00AEE80F00BCE80F008A
:1039B000AEE80F009CE803008EE803006946284645
:1039C000049601F079FDF8B9E069D8B104F11C055D
:1039D000284601F069FE8446EE46E468BCE80F0024
:1039E000AEE80F00BCE80F00AEE80F009CE8030053
:1039F0008EE8030069462846049401F05DFD003816
:103A000018BF01200AB070BD01200AB070BD00BF10
:103A100030B5046883B00D46E3694BB1A36800205C
:103A2000E26A616A9B00009004F11C0001F03EFE16
:103A3000A3680748A26A9B00216A009004F118005D
:103A400001F034FE0020C4E9005003B030BD00BFD7
:103A5000312D000810B4074B4FF07E513024002266
:103A6000032019619C60D8605DF8044B5961C3E97B
:103A70000622704758810024704700BFF8B5134FE5
:103A80003C687F2C07D98023114A42F224411C460E
:103A90003B60A2F87E100F4D2B68012B0AD90C4E0B
:103AA0000D4D22463146284600F074F90028F8D121
:103AB0003860F8BD22460649074800F06BF9002837
:103AC000F7D12B68386001332B60F8BD9481002456
:103AD00098810024908100241882002430B4154C71
:103AE0002168F1B14B1E144DE81810F801298C46DD
:103AF00019460A2A01D00D2A02D14BB1013BF4E745
:103B00000CF102037F2B10D98023236030BC704757
:103B10000122022323600D200A236854AB5430BCD9
:103B2000704701220223044DF4E70CF101026146C3
:103B3000F0E700BF948100249881002410B5094C5F
:103B400002460B46084821680844C1F1800112F082
:103B5000FFF9236818442060FFF7C0FFFFF78EFFCE
:103B600010BD00BF94810024988100240FB400B5DB
:103B700083B004A951F8040B0191FFF7DFFF03B0F4
:103B80005DF804EB04B0704710B5044600210A4804
:103B900000F07AF8002C094B14BF022200220848DA
:103BA0001A60FFF7E3FF0748FFF7E0FF0A20BDE8D0
:103BB000104001F0A7BE00BF1882002490810024AD
:103BC0006073010870730108064A0749074808B581
:103BD00011F00EFB034A04490548BDE8084011F006
:103BE00007BB00BF00000024793A000818820024B7
:103BF0001C82002470B5044682B0C1F30726CDB202
:103C0000ADF8041001F076FE4FF480724FF00123FE
:103C10002060A01DA571A280E671A36002B0BDE87E
:103C2000704000F0EFBB00BF38B5044601F062FE03
:103C3000002223682271834210D00122A57AE37A00
:103C4000954020602271A01D6DB243B900F0B6FC12
:103C500040B22843C0B27F28A0720AD038BD00F01D
:103C6000ADFCB0FA80F040092843C0B27F28A072B2
:103C7000F4D101F03FFE07EE900AF8EE677AC4ED4A
:103C8000037A38BD704700BF012910B506D002295C
:103C900015D051B1BDE8104006F0A4BD0A46344825
:103CA00034490AF039FFE8B1FEE7334B0A46334C9A
:103CB000334934481C600AF02FFF68B1FEE7012247
:103CC0002C492B480AF028FF00B1FEE72E4928486E
:103CD0000AF044FFC0B1FEE72B492A480AF03EFF34
:103CE00060B1FEE7284922480AF038FF00B1FEE73C
:103CF00026491F480AF0C0FE08B3FEE724492148C0
:103D00000AF0BAFEA8B1FEE7204919480AF0B4FE4D
:103D100000B1FEE716480AF037FF024640B9164BDD
:103D2000164C174917481C600AF0F6FE68B1FEE70A
:103D3000FEE714480AF028FF0028ABD0FEE70C4845
:103D40000AF022FF0028A5D0FEE70F490D480AF02F
:103D500005FF00B1FEE70E490A480AF08DFE00B1EA
:103D6000FEE708480AF010FF002893D0FEE700BFE6
:103D7000BC8400245401002458870024853C00089A
:103D80003801002420820024BC01002418010024F2
:103D900008010024084691B208B502F07DF8003809
:103DA00018BF012008BD00BF014805F0F9BF00BFE2
:103DB00040B20024014805F0F3BF00BF40B2002428
:103DC000014805F0EDBF00BF40B2002482B04FF0C3
:103DD000000C0323ADF80410BDF8042080F810C0D7
:103DE0000280438002B070472DE9F04FBE4E00259F
:103DF0008FB0BE4C037006F140034260074601924B
:103E00008846202229463046C4F85831C4F8546107
:103E1000CDE90355CDE90555CDE90755CDE909555E
:103E2000CDE90B5511F0EEFE2022294604F59970DC
:103E3000C4F82151C4F82551C4F82951C4F82D51B2
:103E400011F0E0FE019B84F8385284F820317A6842
:103E5000002A5FD02B464146B64604F59075994638
:103E60004FF0010A03EB0310D1F800B0D1F8048041
:103E70000133D1F808C02218CE6844F800B0C2F867
:103E80000480C2F808C0D660087C2EF8029B10742B
:103E90000A7C05F8012F002A69D07A68113184F86C
:103EA00038A29A42DED84FF4802291489DF804301F
:103EB00008214FF000084FF00009C4F874310023C6
:103EC000C4E957020122C4F8643184F87031C4E9AE
:103ED0005A2194F83812C4E9608981B3C4F8882162
:103EE000002284F8713184F878313B78C4E9632288
:103EF000A3B3012200200121013B84F89421C4E9ED
:103F00006801082B2CD8DFE803F0ABB0B5BABFC40A
:103F1000C9CFD6009DF804300121C4F86421C4F84B
:103F200074314FF4802384F87021714AC4E9572317
:103F300008230022C4E95A130023C4E960230123A3
:103F4000002284F87131002384F878310323C4F807
:103F500088313B78C4E96322002BCAD184F89431BC
:103F6000644803F0D5F8034638B1FFBEFEE77A682F
:103F700011319A423FF676AF95E703A95D48039366
:103F800003F024FA0546002868D1022240F2FF73AC
:103F9000CDE9082300230422CDE90A2394F8203137
:103FA000002B00F0D5804FF0060921E0022B00F035
:103FB0008980012B40F0C4809AF80130012B00F079
:103FC000C180002B4C4B18BF002306A94948CDE9FE
:103FD000063902F0C9FC002840F0BF80013594F892
:103FE0002031EDB2AB4240F2B380444B53F8259000
:103FF0002FB207EB071704EB070A504600F002FA4E
:1040000005EB051323441B7C042B7DDC022B00F302
:10401000918000F08D806319002283F81021E35D08
:10402000002BC3D19AF80130062B00F08580072BB6
:1040300000F08A80022B00F09680032B00F0958020
:10404000002B00F09680012B00F09180042B00F0F3
:104050009280052B2A4B18BF0023B6E7FFBEFEE770
:1040600003224023C4E966237AE707226023C4E9D8
:10407000662375E70F228023C4E9662370E71F22B9
:10408000A023C4E966236BE73F22C023C4E966236B
:1040900066E77F22E023C4E9662361E7FF224FF44D
:1040A0008073C4E966235BE740F2FF124FF490731C
:1040B000C4E9662354E740F2FF324FF4A073C4E929
:1040C00066234DE79AF80130042B37D0052B3DD0FD
:1040D000002B40D0012B42D0022B42D0032B094BA6
:1040E00018BF002371E700BF004000306087002444
:1040F00000200240BC8800240002B0258073010823
:104100000000B84F0020903603233E1D04EB050845
:104110004FF0000B264488F8103130460BF1010BAC
:1041200000F070F998F8103104365B45F5DC76E75D
:104130000123EAE70223E8E7104B46E7104B44E788
:10414000002342E70F4B40E70F4B3EE70F4B3CE7A6
:104150000FB0BDE8F08F0E4B37E7FFBEFEE70D4B0B
:1041600033E70D4B31E70D4B2FE70D4B2DE70D4B93
:104170002BE70D4B29E70D4B27E700BF0800900CFC
:104180001000C0102000F0148000501D000180219C
:104190000004002A0008302E001060320040C03AAF
:1041A0000080F03E00005247000021430000844B95
:1041B00038B5094C40F2FF724FF0011104F5AE75AD
:1041C000284603F0B1F894F82021D4F85411284679
:1041D000BDE8384002F01CBE60870024044B0F2964
:1041E000D3F8543198BF03EB41031888704700BFE0
:1041F00060870024064B0F29D3F8543198BF03EB96
:1042000041031B8800EE103ABBEEC80A704700BF9E
:1042100060870024214B02689A4200D07047204AF0
:1042200000232048D2F8D81030B51F4C41F02001AF
:1042300083B0C4F8C001092004F5E075C4E9710336
:104240004FF48060C2F8D810D2F8D8204FF4006143
:10425000C4E9733094F8380202F02002C4F8D41193
:104260004FF40051984201922846C4F8D811C4E98D
:104270007833019B14BF00234FF48073C4F8DC3102
:1042800003F0DCFA08B1FFBEFEE704F5AE73C4F834
:10429000A851C4F8F83103B030BD00BF002002407F
:1042A000004402584000024060870024014803F0A7
:1042B0003DBE00BF2089002402682DE9F84F4B4B1A
:1042C0009A4201D0BDE8F88F494D95F83832002B5D
:1042D000F8D095F82031002B77D0002405F10C0997
:1042E00005F5997605F59077A04613E003F00101F6
:1042F00017F811BCA9F1080000F06EF9BBF1010F2D
:1043000025D895F82031013409F111090236A2B2FD
:1043100093422BD917F8012F002AF4D0D5F8543145
:104320000021327833F81400D5F8583103EB041328
:1043300023F81200338801339BB233805FFA83FA8B
:104340003A789A42D2D88A46A6F80080D0E7CAF3D3
:104350004001A9F1040000F03FF9BBF1020FCAF3DC
:104360008001CED0484600F037F9CAE7002395F81F
:104370003802204909229842C5F8C8314FF48060BC
:10438000C5F8C011C5F8C4214FF400614FF40052C4
:10439000C5F8CC3108BF4FF48073C5F8D821C5E902
:1043A000740100221448C5E97732C5F8E42103F00E
:1043B00045FA08B1FFBEFEE795F82021D5F8541163
:1043C0000E48BDE8F84F02F023BD0A4909224FF418
:1043D0008060C5F8C831C5E970124FF400614FF430
:1043E0000052C5E97330C5E97512DAE700200240D2
:1043F000608700244000024020890024BC880024FB
:10440000704700BF8378022B30B504468FB037D099
:10441000032B33D0012B31D000230A93E378012BF7
:104420002AD0022B28D000230B93002320460C9384
:1044300002F014F90546204602F018F92378099095
:10444000082B13D8DFE803F01F3245586B7E91A488
:104450000500594BD3F8E02042F48072C3F8E02005
:10446000D3F8E03003F480730893089B09A9284629
:1044700004F0AEF80FB030BD0B93D6E70A93CDE74A
:1044800011230A93CAE74C4B09A92846D3F8E02028
:1044900042F00102C3F8E020D3F8E03003F001035A
:1044A0000093009B04F094F80FB030BD424B09A973
:1044B0002846D3F8E02042F00202C3F8E020D3F807
:1044C000E03003F002030193019B04F081F80FB088
:1044D00030BD394B09A92846D3F8E02042F0040248
:1044E000C3F8E020D3F8E03003F004030293029B0A
:1044F00004F06EF80FB030BD2F4B09A92846D3F851
:10450000E02042F00802C3F8E020D3F8E03003F0E6
:1045100008030393039B04F05BF80FB030BD264BF8
:1045200009A92846D3F8E02042F01002C3F8E020A1
:10453000D3F8E03003F010030493049B04F048F830
:104540000FB030BD1C4B09A92846D3F8E02042F03B
:104550002002C3F8E020D3F8E03003F020030593F5
:10456000059B04F035F80FB030BD134B09A9284660
:10457000D3F8E02042F04002C3F8E020D3F8E03066
:1045800003F040030693069B04F022F80FB030BD01
:10459000094B09A92846D3F8E02042F08002C3F86D
:1045A000E020D3F8E03003F080030793079B04F08A
:1045B0000FF80FB030BD00BF0044025838B50546B3
:1045C00002F04CF80446284602F050F80146204616
:1045D000BDE8384004F004BA70B506460D4602F056
:1045E0003DF80446304602F041F82A1E01462046B6
:1045F00018BF0122BDE8704004F0F8B90023122270
:1046000070B586B0CDE9022304930368032B01D86B
:1046100004230593061D841D304602F01FF805464D
:10462000304602F023F8034601A92846019303F01F
:10463000CFFF204602F012F8034620461C4602F047
:1046400015F801A903462046019303F0C1FF06B007
:1046500070BD00BF634A0368934210B58CB028D088
:10466000614A934258D0614A934200F09480604A74
:10467000934201D00CB010BD5E4C5F48D4F8E030DE
:1046800043F00203C4F8E030D4F8E03003F0020352
:104690000A930A9BFFF7B2FFD4F8F43043F080038B
:1046A000C4F8F430D4F8F43003F080030B930B9B80
:1046B000E0E7504C5148D4F8E03043F00203C4F82E
:1046C000E030D4F8E03003F002030193019BFFF7E0
:1046D00095FFD4F8E83000221F2043F40013114660
:1046E000C4F8E830D4F8E83003F400130293029BD6
:1046F000D4F8D83043F00103C4F8D830D4F8D83017
:1047000003F001030393039B02F0D4FE1F200CB0BF
:10471000BDE8104002F00CBF364C3948D4F8E03008
:1047200043F08003C4F8E030D4F8E03003F08003B5
:104730000493049BD4F8E03043F00203C4F8E03063
:10474000D4F8E03003F002030593059BFFF756FF12
:10475000D4F8E8300022212043F480031146C4F845
:10476000E830D4F8E83003F480030693069BD4F8CD
:10477000D83043F00103C4F8D830D4F8D83003F06F
:1047800001030793079B02F095FE21200CB0BDE8C2
:10479000104002F0CDBE1B48FFF730FF154B002242
:1047A0004820D3F8E840114644F40004C3F8E84038
:1047B000D3F8E84004F400040894089CD3F8D840E7
:1047C00044F00104C3F8D840D3F8D83003F0010313
:1047D0000993099B02F06EFE48200CB0BDE8104022
:1047E00002F0A6BE0054004000580040005C0040AB
:1047F000001C005800440258288C0024A089002482
:10480000788A0024508B00242DE9F0431A4B87B09E
:1048100000254FF010099E46EC46184BFF22E0465B
:1048200067461A700EF118060EF13004CDE90055F6
:10483000CDE90255ADF80090BCE80F00CDE9045574
:10484000AEE80F009CE803000095ADF800908EE8FC
:104850000300B8E80F000FC69CE803000095ADF810
:10486000009086E803000FCF0FC49CE8030084E8A3
:10487000030007B0BDE8F083B80000249C89002441
:1048800010B5EFF3108472B6084B1A78120602D5F1
:1048900004B962B610BD1B78D82205485BB202FB92
:1048A0000300143003F042FBF2E700BF9C890024B0
:1048B000A0890024014805F059B900BF2C8A0024C2
:1048C000014805F053B900BF048B0024014805F0EE
:1048D0004DB900BFDC8B00242DE9F0430F68D824CC
:1048E0003F4D85B007FB04F4032F05EB0403036081
:1048F00040DCCB680E46012B3CD84DD04FF0D80899
:10490000B646DFF8FC9008FB0758BEE80F00C44627
:10491000ACE80F00DEF800300DF1100ECCF80030DE
:10492000D8F808C099E80F000EE90F000EEB8703D6
:10493000BCF1010F53F8103CC8F88C3031D0BCF1F9
:10494000020F42D0BCF1000F35D0317C8C34D8231B
:10495000002201202C4403FB07534900C3E926022F
:10496000C3F894102046C3E92822C3E92A2204F0A0
:1049700047FD18B1012005B0BDE8F083014620468F
:1049800005F000F90028F5D10146204605F024F98C
:10499000003818BF0120EEE70B7C103B672BADD928
:1049A000E8E701F037F90F4B98420CBF0E4B0F4B65
:1049B000C8F89030C9E701F02DF90A4B98420CBFB6
:1049C0000B4B0C4BC8F89030BFE701F023F9054BB7
:1049D00098420CBF084B094BC8F89030B5E700BFB0
:1049E000A0890024000E27072D0FB0303211D020EF
:1049F0005F4390608A62E030200BA0101A0980109B
:104A0000947201082DE9F041D0F8008082B00D4683
:104A100017461E4608F18C04204605F0AFF8202802
:104A2000FAD1D8F80C3073B96D002046089C334693
:104A30003A46A9B2009404F039FD003818BF0120AD
:104A400002B0BDE8F081089B32463946204604F0AA
:104A5000D7FEF2E72DE9F041D0F8008082B00D4694
:104A600017461E4608F18C04204605F087F82028DA
:104A7000FAD1D8F80C3073B96D002046089C334643
:104A80003A46A9B2009404F0E5FD003818BF0120B1
:104A900002B0BDE8F081089B32463946204604F05A
:104AA00093FFF2E7044B10221A7483F8E82083F88E
:104AB000C02183F898227047A089002430B50023D4
:104AC00095B04FF48071062204460B93069213931F
:104AD000CDE90C13CDE90E33CDE9113301F0A2F885
:104AE00007282BD004F1100541F2883206A9284688
:104AF00005F0C4FF28B10123184684F85C3015B0D6
:104B000030BD0222022306A92846CDE90023102247
:104B10000123CDE9022300224FF48003CDE90423D1
:104B200005224FF0807306926A460F9341F2883354
:104B300006F010F90028DED115B030BD03230120A6
:104B400084F85C3015B030BD70B50023A4B04FF0D0
:104B500080724FF480750446ADF806300D93CDE9B0
:104B600010320122CDE90E53CDE91223CDE91433E1
:104B7000002943D0F02300F1100508AEADF806304F
:104B8000C02341F2883231462846089305F076FF6B
:104B900028B10123184684F85C3024B070BD41F27E
:104BA00088320DF10601284605F0D2FF03460028A1
:104BB000EFD105224FF480711E93284616924FF0D4
:104BC00080721B9321931F9202AA9FED1F7BCDE958
:104BD0001C13CDE922338DED027B9FED1D7B41F24D
:104BE000883316A98DED047B9FED1B7B8DED067B35
:104BF00006F0B0F80028CCD124B070BD00F110054B
:104C000008AE612341F2883231462846089305F008
:104C100035FF0028BDD141F288320DF1060128464A
:104C200006F014F80028B4D1BDF80630204623F071
:104C3000780343F04003ADF80630FFF73FFF00284C
:104C40009ED0A6E7AFF30080000000000100000046
:104C50001000000001000000000000000000400003
:104C60002DE9F04F00234FF4807501264FF0807836
:104C700004462DED028BABB08DF8073013932193D2
:104C8000299314950E96CDF85C80CDE91533CDE9C6
:104C90001863CDE91A33CDE92253CDE92433CDE9A8
:104CA000273306231C9300F0BDFF072808D004F12A
:104CB000100741F288321CA9384605F0DFFE40B1EA
:104CC0000123184684F85C302BB0BDEC028BBDE8A4
:104CD000F08F4FF0020A4FF0020B4FF0050941F23E
:104CE000883308AA1CA93846CDF89480CDF8709076
:104CF0009FED2D8BCDE908AB4FF0000A4FF4800BF0
:104D00008DED0A8BCDE90CAB06F024F80028D7D145
:104D100041F2883238460EA905F0B0FE0028CFD106
:104D2000402341F288320DF1070138468DF80730F3
:104D300005F00EFF0028C3D141F288330EA902AA64
:104D40003846CDF83890CDF85C809FED197B8DED1D
:104D5000048BCDE906AB8DED027B05F0FBFF03462E
:104D60000028ADD1CDF870904FF00109CDF89480B6
:104D70004FF00008219308AA29931CA938462295D0
:104D8000CDE92333CDE9273341F288338DED0A8B0A
:104D9000CDE90CABCDE9088905F0DCFF002893D004
:104DA000304684F85C608FE71000000001000000CE
:104DB00040000000400000002DE9F043624CA3B029
:104DC0000D46046000F02EFF072800F0A980286837
:104DD00023466968AA6807C31E46AB8926F8043BC8
:104DE0003046257B677B05F02BFEE0B9574B012D44
:104DF0004FF00108E061236114BF4FF480134FF4BA
:104E00000003C4E9058893FAA3F3B3FA83F34FF4DC
:104E10008079013BC4F82490C4E90B00304623623A
:104E200005F0A2FD38B10122134684F85C20184633
:104E300023B0BDE8F08366230B90139041F28832D3
:104E400006A90693CDE90C90CDE90E00CDE911003D
:104E5000304605F013FE0028E5D1992341F288324F
:104E600006A93046069305F009FE0028DBD105238C
:104E70001C9019906A4614934FF08073219014A9E6
:104E80001D9341F288339FED2A7BCDE91A90CDE93D
:104E90001F008DED007B9FED287B30468DED027B62
:104EA0009FED277B8DED047B05F054FF0028BAD1E0
:104EB00029462046FFF748FE0028B4D12046FFF7D8
:104EC000CFFE03460028AED1002FB0D11893304654
:104ED0000027002606AA14A9CDF86890CDE91F3353
:104EE000EB2314934FF440631B934FF40053179339
:104EF0004FF440431C93A0231693062319934FF0BD
:104F0000805321934FF04073CDE906671D9305F060
:104F100099FF034600288AD0434684F85C8086E7E0
:104F200001230322184684F85C2023B0BDE8F083F7
:104F3000000000000100000010000000010000005F
:104F40000000000000004000008D002400500052CE
:104F50002DE9F04F8FB0414B0024026800AF9A4218
:104F60007C63C7E90944C7E90B4403D03C37BD461D
:104F7000BDE8F08F3A4B40F609213A48EB46D3F8AA
:104F8000D42007F11C0607F1220A4FF0020942F46F
:104F900080424FF00308C3F8D420D3F8D42002F4A1
:104FA0008042BA60BA68D3F8E02042F04002C3F809
:104FB000E020D3F8E02002F04002FA60FA68D3F86B
:104FC000E02042F02002C3F8E020D3F8E02002F015
:104FD00020023A613A69D3F8E02042F01002C3F8A7
:104FE000E020D3F8E02002F010027A617A69D3F869
:104FF000E02042F00202C3F8E020D3F8E030F8618C
:1050000003F002033984BB61174B7B60BB697B688B
:1050100053F8040F7B6001F021FB7B68054618689C
:1050200001F024FB16F8013B786207F124012846C1
:10503000C7F830807B63C7E90A9403F0C9FA564584
:10504000E5D100225C20114602F034FA5C2002F027
:105050006FFA3C37DD46BD46BDE8F08F0050005288
:10506000004402580A0A09095C8D0024114B0268A9
:105070009A4200D07047104A70B5D2F8D4300F4C25
:1050800023F4804304F11806C2F8D43054F8040F16
:1050900001F0E4FA0546206801F0E8FA01462846E6
:1050A00003F0D6FBB442F1D15C20BDE8704002F0C1
:1050B0004DBA00BF00500052004402585C8D0024DD
:1050C000014805F04BBF00BF108D0024084B1A1D8E
:1050D000981D03F1080110B49C1C9A6603F10A02A2
:1050E000C3E91834C3E91B015DF8044B5A677047E4
:1050F000008D002438B5036871B9026A00F12805F3
:1051000000F5AC74012A0CBF002140218BBB1D4B64
:105110005722C0F858310DE0426A00F1C00500F591
:10512000E874012A0CBF00214021EBB1164B5A2232
:10513000C0F8D03100232046C4E901214FF4805249
:105140004FF48061636262614FF48042C4E90331CD
:105150004FF48073C4E906234FF40033236202F056
:105160006DFB58B1FFBEFEE7084B5822C0F8D031A6
:10517000E0E7074B5922C0F85831DBE7C5E9204486
:10518000A56338BD100002407000024028000240B4
:10519000580002402DE9F043821D05468BB0031DE7
:1051A00005F10A010830CDE9052305F10C02AB69D0
:1051B000CDE907010992002B3DD0EB69B3FA83F8E2
:1051C0004FEA58180123022205AE0AAF4FF0060934
:1051D0000393CDE9012356F8044B2B7922789342AF
:1051E00016D02B68F3B1012B02D1F2B10A2304933C
:1051F000204601F03BFA03462046009301F02EFAC8
:10520000694603F0E5F9BE42E5D10BB0BDE8F08395
:10521000697963789942E4D1B8F1000FF3D02B6833
:10522000002BE0D1CDF81090E2E76378022B14BF99
:105230000A230823DBE74FF00108C3E7534A03685A
:10524000934230B505468BB055D02032934252D0B0
:105250004F4A934204D02032934201D00BB030BD6C
:105260004C4C4D48D4F8E03043F00103C4F8E03032
:10527000D4F8E03003F001030593059BD4F8E03047
:1052800043F00803C4F8E030D4F8E03003F008033A
:105290000693069BD4F8E03043F04003C4F8E030B6
:1052A000D4F8E03003F040030793079BD4F8F030C4
:1052B00043F40003C4F8F030D4F8F03003F40003F2
:1052C0000893089BFFF766FFD4F8D830296843F0AD
:1052D00001032F4A3048C4F8D830891AD4F8D8309E
:1052E00018BF012103F001030993099B0BB0BDE82E
:1052F0003040FFF7FFBE274C2848D4F8E03043F099
:105300000103C4F8E030D4F8E03003F00103009367
:10531000009BD4F8E03043F01003C4F8E030D4F838
:10532000E03003F010030193019BD4F8E03043F028
:105330004003C4F8E030D4F8E03003F040030293B7
:10534000029BD4F8F03043F48003C4F8F030D4F872
:10535000F03003F480030393039BFFF71BFFD4F8A3
:10536000D830296843F00103084A0C48C4F8D83003
:10537000891AD4F8D83018BF012103F0010304932F
:10538000049B0BB0BDE83040FFF7B4BE04580140A9
:10539000045C014000440258D48F0024788D00241E
:1053A000014802F0C3BD00BFD08E0024014802F0C6
:1053B000BDBD00BF488F0024014802F0B7BD00BF4B
:1053C0002C910024014802F0B1BD00BFA49100243B
:1053D0001A4A0368934210B40BD02032934208D08B
:1053E000174A934216D02032934213D05DF8044BF3
:1053F0007047144B0022D3F85442C3F85822002CB3
:10540000F4D0D3F84802D3E9931223465DF8044B55
:10541000520818470B4B0022D3F8B044C3F8B42409
:10542000002CE3D0D3F8AC24D3F8A814D3F8A40408
:10543000520823465DF8044B184700BF045801404A
:10544000045C0140788D0024184A0368934210B42C
:105450000BD02032934208D0154A934217D0203205
:10546000934214D05DF8044B7047124BD3E9942457
:105470005208C3F85822002CF4D0D3E992012346F5
:1054800001EB820100EB82005DF8044B1847094BE9
:10549000D3F8AC24D3F8B0445208C3F8B424002C99
:1054A000E0D0D3F8A814D3F8A404E8E704580140E6
:1054B000045C0140788D00242DE9F04F0C684FF416
:1054C0001776754F87B004FB06F6012C07EB060A2A
:1054D000C0F800A000F3A0800D468E464FF00008F3
:1054E000D44669A3D3E9002369A1D1E90001CDE93C
:1054F000022306ABCAF8508203EB8403CDE9040112
:1055000053F810BC53F8083CCAE992880193BEE8EE
:105510000F00ACE80F00BEE80F00ACE80F00019BE5
:105520009EE80300CAF828B0CAF8C0308CE803002F
:105530002B69042B0CD8DFE803F0737D87910300FF
:105540004FF41773554A03FB04739A64C3F8E020C1
:10555000AA692B6A002A43D0002B4FF4177308BFA7
:10556000022203FB047318BF0322DA6201221A63CA
:10557000EA696B6A002A40D1191E4FF4177318BFED
:10558000012103FB0473C3E931126B69022B05D8B7
:10559000434A12F80380434A52F823904FF417739A
:1055A00006F128004246494603FB047400233844B0
:1055B00063646363E365C4F8DC30C4F8CC30C4F8DA
:1055C000F430C4E90F33C4E91533C4E93533C4E911
:1055D0003B33022307F064FD002849D0FFBEFEE7FD
:1055E000191E4FF4177318BF012103FB0473C3E99D
:1055F0000B12EA696B6A002ABED0002B4FF41773B6
:1056000008BF022203FB047318BF0322C3F8C4209F
:105610000122C3F8C820B8E7012007B0BDE8F08F29
:105620004FF417734FF4FA5203FB04739A64C3F8F0
:10563000E0208DE74FF417734FF47A5203FB0473A5
:105640009A64C3F8E02083E74FF417734FF4FA42EB
:1056500003FB04739A64C3F8E02079E74FF41773EF
:105660004BF6803203FB04739A64C3F8E0206FE7C3
:1056700006F1C000022342464946384407F010FDB7
:105680000028CAD0FFBEFEE704580140045C014078
:1056900024580140245C0140788D002400770100EB
:1056A000C0730108C47301080068704770B50468CE
:1056B00082B015460E46C4F85032C4E99212069ADA
:1056C000C4F85422A269012A26D0626A012A9AB239
:1056D00011D0294604F1C000019207F09DFD236A14
:1056E000019A012B10D0294604F1280007F094FDFF
:1056F000002002B070BD04F1C000019207F01EFE50
:10570000236A019A012BEED1314604F1280007F0FB
:1057100015FE002002B070BD226A012A9AB211D093
:10572000294604F12800019207F076FD636A019A88
:10573000012B10D0294604F1C00007F06DFD0020B8
:1057400002B070BD04F12800019207F0F7FD636A12
:10575000019A012BEED1314604F1C00007F0EEFDB5
:10576000002002B070BD00BF03681B69042B05D880
:10577000044A02EB830393ED000A70479FED020A8F
:10578000704700BFD073010800803B470368D3F81F
:1057900058027047704700BF08B501F06FF8BDE8C8
:1057A000084001F061BF00BF064808B503680BB1AF
:1057B00003F020F9044803681BB1BDE8084004F079
:1057C000EFBA08BD50BC002448B60024064808B50E
:1057D00003680BB103F00EF9044803681BB1BDE880
:1057E000084004F0DDBA08BD50BC002448B60024CF
:1057F000064808B503680BB103F0FCF804480368D9
:105800001BB1BDE8084004F0CBBA08BD50BC002471
:1058100048B60024364BDA6A520062D59A6A9A6A10
:105820009A6A9B6A180600D500BE314B9B6A99069E
:1058300000D500BE2E4B9B6ADA0600D500BE2C4B6D
:105840009B6A1B0700D500BE294B9B6A980700D5B1
:1058500000BE274B9B6AD90700D500BE244B9B6A2C
:105860001A0400D500BE224B9B6A9B0400D500BEE3
:105870001F4B9B6AD80400D500BE1D4B9B6A1905BF
:1058800000D500BE1A4B9B6A5A0500D500BE184BC6
:105890009B6A9B0500D500BE154B9B6AD80500D5B9
:1058A00000BE134B9B6A990100D500BE104B9B6A4A
:1058B000DA0100D500BE0E4B9B6A1B0300D500BE6B
:1058C0000B4B9B6A580300D500BE094B9B6A99039A
:1058D00000D500BE064B9B6ADA0306D400BE00BEAC
:1058E000FEE7DB6A9B07FAD5F8E700BEF6E700BFE4
:1058F00000ED00E000F0CEBF01480AF023BE00BF7B
:105900003092002400F0CCBF10B582B040F20633D4
:10591000012401A8ADF804308DF80640FEF772FDB1
:10592000214601A8FEF758FE0A2000F0B9FF034BFC
:1059300000221A6601F01EFE02B010BD004402589B
:105940002DE9F041CEB004464C2200210AA810F007
:1059500059F92022002102A810F054F9BC2200219C
:105960001EA810F04FF9022004F016FF2368012B47
:105970004FF0000354D0534A02250193C820D16A46
:10598000514B21F00101D162D26A02F00102019271
:105990009A6942F440429A619B6903F4404301933F
:1059A000019B494A93699B04FCD548490224002283
:1059B00001268B6A04274FF0080823F003032343D2
:1059C0008B62052316900AA818934FF48033109623
:1059D000179419941597CDF86880CDE91B222122E0
:1059E000CDE91344CDE90A2305F0C0FB00B1FEE781
:1059F0003F220323294602A8CDE9022300220823DF
:105A0000CDE9042340224023CDE9062340234FF46F
:105A10008062CDE9082305F0D7FE0346B8B1FEE762
:105A2000294A04250093F0209169264B41F4404116
:105A30009161926902F440420092DA6A42F00102F6
:105A4000DA62DB6A03F001030093009BA9E72022DE
:105A50004FF4805125934FF440152B9280222D93C3
:105A60001EA83093269135914FF480712492349280
:105A70000C223394439140F2271120921022CDF84A
:105A800084802A971F96CDE92E34CDE93B334FF41D
:105A90008033CDE922463193002446930623CDE995
:105AA0003E4527934FF48063094C2C931E94CDE917
:105AB000281206F0E5F800B1FEE704F093FE4EB0C0
:105AC000BDE8F08100040058004802580044025824
:105AD0000F130F032DE9F0410D46044684B0D1E9C0
